{
  "_format": "hh-sol-artifact-1",
  "contractName": "KYCPlatform",
  "sourceName": "contracts/KYCPlatform.sol",
  "abi": [
    {
      "anonymous": false,
      "inputs": [
        {
          "indexed": false,
          "internalType": "string",
          "name": "uid",
          "type": "string"
        },
        {
          "indexed": false,
          "internalType": "address",
          "name": "userAddress",
          "type": "address"
        },
        {
          "indexed": false,
          "internalType": "uint256",
          "name": "kycExpireTime",
          "type": "uint256"
        }
      ],
      "name": "KycCreated",
      "type": "event"
    },
    {
      "anonymous": false,
      "inputs": [
        {
          "indexed": true,
          "internalType": "uint256",
          "name": "projectIndex",
          "type": "uint256"
        },
        {
          "indexed": false,
          "internalType": "address",
          "name": "userAddress",
          "type": "address"
        }
      ],
      "name": "KycShared",
      "type": "event"
    },
    {
      "anonymous": false,
      "inputs": [
        {
          "indexed": true,
          "internalType": "address",
          "name": "previousOwner",
          "type": "address"
        },
        {
          "indexed": true,
          "internalType": "address",
          "name": "newOwner",
          "type": "address"
        }
      ],
      "name": "OwnershipTransferred",
      "type": "event"
    },
    {
      "anonymous": false,
      "inputs": [
        {
          "indexed": true,
          "internalType": "uint256",
          "name": "projectIndex",
          "type": "uint256"
        },
        {
          "indexed": false,
          "internalType": "string",
          "name": "projectId",
          "type": "string"
        },
        {
          "indexed": false,
          "internalType": "address",
          "name": "creator",
          "type": "address"
        },
        {
          "indexed": false,
          "internalType": "uint256",
          "name": "projectExpireTime",
          "type": "uint256"
        }
      ],
      "name": "ProjectCreated",
      "type": "event"
    },
    {
      "inputs": [
        {
          "internalType": "string",
          "name": "_uid",
          "type": "string"
        },
        {
          "internalType": "bytes",
          "name": "_signature",
          "type": "bytes"
        }
      ],
      "name": "createKYCMember",
      "outputs": [],
      "stateMutability": "nonpayable",
      "type": "function"
    },
    {
      "inputs": [
        {
          "internalType": "string",
          "name": "_projectId",
          "type": "string"
        },
        {
          "internalType": "bytes",
          "name": "_signature",
          "type": "bytes"
        }
      ],
      "name": "createProject",
      "outputs": [],
      "stateMutability": "payable",
      "type": "function"
    },
    {
      "inputs": [
        {
          "internalType": "string",
          "name": "_uid",
          "type": "string"
        },
        {
          "internalType": "address",
          "name": "_userAddress",
          "type": "address"
        }
      ],
      "name": "getCreateKYCMessageHash",
      "outputs": [
        {
          "internalType": "bytes32",
          "name": "",
          "type": "bytes32"
        }
      ],
      "stateMutability": "pure",
      "type": "function"
    },
    {
      "inputs": [
        {
          "internalType": "string",
          "name": "_uid",
          "type": "string"
        },
        {
          "internalType": "address",
          "name": "_userAddress",
          "type": "address"
        }
      ],
      "name": "getCreateProjectMessageHash",
      "outputs": [
        {
          "internalType": "bytes32",
          "name": "",
          "type": "bytes32"
        }
      ],
      "stateMutability": "pure",
      "type": "function"
    },
    {
      "inputs": [
        {
          "internalType": "uint256",
          "name": "_projectIndex",
          "type": "uint256"
        },
        {
          "internalType": "address",
          "name": "_userAddress",
          "type": "address"
        }
      ],
      "name": "getKYCByProject",
      "outputs": [
        {
          "components": [
            {
              "internalType": "string",
              "name": "uid",
              "type": "string"
            },
            {
              "internalType": "address",
              "name": "userAddress",
              "type": "address"
            },
            {
              "internalType": "uint8",
              "name": "version",
              "type": "uint8"
            },
            {
              "internalType": "uint256",
              "name": "createdAt",
              "type": "uint256"
            },
            {
              "internalType": "uint256",
              "name": "kycExpireTime",
              "type": "uint256"
            }
          ],
          "internalType": "struct KYCPlatform.KycInfo",
          "name": "",
          "type": "tuple"
        }
      ],
      "stateMutability": "view",
      "type": "function"
    },
    {
      "inputs": [
        {
          "internalType": "address",
          "name": "_userAdress",
          "type": "address"
        }
      ],
      "name": "getKYCInfo",
      "outputs": [
        {
          "components": [
            {
              "internalType": "string",
              "name": "uid",
              "type": "string"
            },
            {
              "internalType": "address",
              "name": "userAddress",
              "type": "address"
            },
            {
              "internalType": "uint8",
              "name": "version",
              "type": "uint8"
            },
            {
              "internalType": "uint256",
              "name": "createdAt",
              "type": "uint256"
            },
            {
              "internalType": "uint256",
              "name": "kycExpireTime",
              "type": "uint256"
            }
          ],
          "internalType": "struct KYCPlatform.KycInfo",
          "name": "",
          "type": "tuple"
        }
      ],
      "stateMutability": "view",
      "type": "function"
    },
    {
      "inputs": [],
      "name": "getSettingKYC",
      "outputs": [
        {
          "components": [
            {
              "internalType": "uint8",
              "name": "version",
              "type": "uint8"
            },
            {
              "internalType": "uint32",
              "name": "renewExpireTime",
              "type": "uint32"
            },
            {
              "internalType": "uint32",
              "name": "durationUpdateVersion",
              "type": "uint32"
            }
          ],
          "internalType": "struct KYCPlatform.SettingKYC",
          "name": "",
          "type": "tuple"
        }
      ],
      "stateMutability": "view",
      "type": "function"
    },
    {
      "inputs": [],
      "name": "getSettingProject",
      "outputs": [
        {
          "components": [
            {
              "internalType": "uint32",
              "name": "expireEachProject",
              "type": "uint32"
            },
            {
              "internalType": "uint256",
              "name": "serviceFee",
              "type": "uint256"
            },
            {
              "internalType": "uint32",
              "name": "durationPaymentFee",
              "type": "uint32"
            }
          ],
          "internalType": "struct KYCPlatform.SettingProject",
          "name": "",
          "type": "tuple"
        }
      ],
      "stateMutability": "view",
      "type": "function"
    },
    {
      "inputs": [
        {
          "internalType": "bytes32",
          "name": "_messageHash",
          "type": "bytes32"
        },
        {
          "internalType": "bytes",
          "name": "_singature",
          "type": "bytes"
        }
      ],
      "name": "getSingerAdderss",
      "outputs": [
        {
          "internalType": "address",
          "name": "singer",
          "type": "address"
        }
      ],
      "stateMutability": "pure",
      "type": "function"
    },
    {
      "inputs": [],
      "name": "owner",
      "outputs": [
        {
          "internalType": "address",
          "name": "",
          "type": "address"
        }
      ],
      "stateMutability": "view",
      "type": "function"
    },
    {
      "inputs": [],
      "name": "renounceOwnership",
      "outputs": [],
      "stateMutability": "nonpayable",
      "type": "function"
    },
    {
      "inputs": [
        {
          "internalType": "uint8",
          "name": "_version",
          "type": "uint8"
        },
        {
          "internalType": "uint32",
          "name": "_durationUpdateVersion",
          "type": "uint32"
        },
        {
          "internalType": "uint32",
          "name": "_renewExpireTime",
          "type": "uint32"
        }
      ],
      "name": "setSettingKYC",
      "outputs": [],
      "stateMutability": "nonpayable",
      "type": "function"
    },
    {
      "inputs": [
        {
          "internalType": "uint32",
          "name": "_expireEachProject",
          "type": "uint32"
        },
        {
          "internalType": "uint256",
          "name": "_serviceFee",
          "type": "uint256"
        },
        {
          "internalType": "uint32",
          "name": "_durationPaymentFee",
          "type": "uint32"
        }
      ],
      "name": "setSettingProject",
      "outputs": [],
      "stateMutability": "nonpayable",
      "type": "function"
    },
    {
      "inputs": [
        {
          "internalType": "uint256",
          "name": "_projectIndex",
          "type": "uint256"
        }
      ],
      "name": "shareKYCInfo",
      "outputs": [],
      "stateMutability": "payable",
      "type": "function"
    },
    {
      "inputs": [
        {
          "internalType": "address",
          "name": "newOwner",
          "type": "address"
        }
      ],
      "name": "transferOwnership",
      "outputs": [],
      "stateMutability": "nonpayable",
      "type": "function"
    },
    {
      "inputs": [
        {
          "internalType": "address",
          "name": "_singer",
          "type": "address"
        },
        {
          "internalType": "string",
          "name": "_uid",
          "type": "string"
        },
        {
          "internalType": "address",
          "name": "_userAddress",
          "type": "address"
        },
        {
          "internalType": "bytes",
          "name": "_signature",
          "type": "bytes"
        }
      ],
      "name": "verifyCreateKYC",
      "outputs": [
        {
          "internalType": "bool",
          "name": "",
          "type": "bool"
        }
      ],
      "stateMutability": "pure",
      "type": "function"
    },
    {
      "inputs": [
        {
          "internalType": "address",
          "name": "_singer",
          "type": "address"
        },
        {
          "internalType": "string",
          "name": "_projectId",
          "type": "string"
        },
        {
          "internalType": "address",
          "name": "_userAddress",
          "type": "address"
        },
        {
          "internalType": "bytes",
          "name": "_signature",
          "type": "bytes"
        }
      ],
      "name": "verifyCreateProject",
      "outputs": [
        {
          "internalType": "bool",
          "name": "",
          "type": "bool"
        }
      ],
      "stateMutability": "pure",
      "type": "function"
    }
  ],
  "bytecode": "0x60806040523480156200001157600080fd5b5062000032620000266200003f60201b60201c565b6200004760201b60201c565b600180819055506200010b565b600033905090565b60008060009054906101000a900473ffffffffffffffffffffffffffffffffffffffff169050816000806101000a81548173ffffffffffffffffffffffffffffffffffffffff021916908373ffffffffffffffffffffffffffffffffffffffff1602179055508173ffffffffffffffffffffffffffffffffffffffff168173ffffffffffffffffffffffffffffffffffffffff167f8be0079c531659141344cd1fd0a4f28419497f9722a3daafe3b4186f6b6457e060405160405180910390a35050565b6132e2806200011b6000396000f3fe6080604052600436106100fe5760003560e01c8063a81d1cec11610095578063dd51ef7811610064578063dd51ef7814610319578063e989b14014610356578063f2fde38b14610393578063f86fa485146103bc578063fa397d22146103f9576100fe565b8063a81d1cec1461025f578063b3d3c7cf1461028a578063c077e8ce146102c7578063c133bbf7146102f0576100fe565b8063856d63d6116100d1578063856d63d61461018f5780638da5cb5b146101ba57806395802804146101e5578063a5edb80714610222576100fe565b806334d6717e14610103578063372cf5a314610140578063715018a61461015c57806383d13d0f14610173575b600080fd5b34801561010f57600080fd5b5061012a6004803603810190610125919061220e565b610422565b60405161013791906128da565b60405180910390f35b61015a600480360381019061015591906122ce565b610455565b005b34801561016857600080fd5b50610171610664565b005b61018d60048036038101906101889190612262565b6106ec565b005b34801561019b57600080fd5b506101a46109a9565b6040516101b19190612b98565b60405180910390f35b3480156101c657600080fd5b506101cf610aa8565b6040516101dc91906128a4565b60405180910390f35b3480156101f157600080fd5b5061020c600480360381019061020791906120fe565b610ad1565b6040516102199190612b76565b60405180910390f35b34801561022e57600080fd5b5061024960048036038101906102449190612127565b610cc5565b60405161025691906128bf565b60405180910390f35b34801561026b57600080fd5b50610274610d25565b6040516102819190612bb3565b60405180910390f35b34801561029657600080fd5b506102b160048036038101906102ac91906122f7565b610e11565b6040516102be9190612b76565b60405180910390f35b3480156102d357600080fd5b506102ee60048036038101906102e99190612333565b610f8f565b005b3480156102fc57600080fd5b5061031760048036038101906103129190612382565b611062565b005b34801561032557600080fd5b50610340600480360381019061033b919061220e565b611149565b60405161034d91906128da565b60405180910390f35b34801561036257600080fd5b5061037d600480360381019061037891906121ba565b61117c565b60405161038a91906128a4565b60405180910390f35b34801561039f57600080fd5b506103ba60048036038101906103b591906120fe565b611190565b005b3480156103c857600080fd5b506103e360048036038101906103de9190612127565b611288565b6040516103f091906128bf565b60405180910390f35b34801561040557600080fd5b50610420600480360381019061041b9190612262565b6112e8565b005b60008282604051602001610437929190612856565b60405160208183030381529060405280519060200120905092915050565b80600680549050811061049d576040517f08c379a000000000000000000000000000000000000000000000000000000000815260040161049490612ad6565b60405180910390fd5b600960006104a9611741565b73ffffffffffffffffffffffffffffffffffffffff1673ffffffffffffffffffffffffffffffffffffffff16815260200190815260200160002060009054906101000a900460ff16610530576040517f08c379a000000000000000000000000000000000000000000000000000000000815260040161052790612af6565b60405180910390fd5b6105888260086000610540611741565b73ffffffffffffffffffffffffffffffffffffffff1673ffffffffffffffffffffffffffffffffffffffff16815260200190815260200160002061174990919063ffffffff16565b156105c8576040517f08c379a00000000000000000000000000000000000000000000000000000000081526004016105bf90612a56565b60405180910390fd5b61062082600860006105d8611741565b73ffffffffffffffffffffffffffffffffffffffff1673ffffffffffffffffffffffffffffffffffffffff16815260200190815260200160002061176390919063ffffffff16565b50817fc58e5c110eed19decf5f4b4c77cbb5e0b267bcffb47b47ef8f3308687fe9dd7061064b611741565b60405161065891906128a4565b60405180910390a25050565b61066c611741565b73ffffffffffffffffffffffffffffffffffffffff1661068a610aa8565b73ffffffffffffffffffffffffffffffffffffffff16146106e0576040517f08c379a00000000000000000000000000000000000000000000000000000000081526004016106d790612ab6565b60405180910390fd5b6106ea600061177d565b565b60026001541415610732576040517f08c379a000000000000000000000000000000000000000000000000000000000815260040161072990612b36565b60405180910390fd5b60026001819055506000151560078360405161074e919061283f565b908152602001604051809103902060009054906101000a900460ff161515146107ac576040517f08c379a00000000000000000000000000000000000000000000000000000000081526004016107a390612a96565b60405180910390fd5b6107c66107b7610aa8565b836107c0611741565b84610cc5565b610805576040517f08c379a00000000000000000000000000000000000000000000000000000000081526004016107fc90612b56565b60405180910390fd5b600061080f611741565b90506000600360000160009054906101000a900463ffffffff1663ffffffff164261083a9190612c8d565b9050600660405180608001604052808681526020018381526020014281526020018473ffffffffffffffffffffffffffffffffffffffff16815250908060018154018082558091505060019003906000526020600020906004020160009091909190915060008201518160000190805190602001906108ba929190611e7d565b50602082015181600101556040820151816002015560608201518160030160006101000a81548173ffffffffffffffffffffffffffffffffffffffff021916908373ffffffffffffffffffffffffffffffffffffffff1602179055505050600160078560405161092a919061283f565b908152602001604051809103902060006101000a81548160ff02191690831515021790555060016006805490506109619190612ce3565b7fa026ee65bff24e0219543a4cec2746ef952b145e2658ac5db36953d7044712a98584846040516109949392919061293a565b60405180910390a25050600180819055505050565b6109b1611f03565b6109b9611741565b73ffffffffffffffffffffffffffffffffffffffff166109d7610aa8565b73ffffffffffffffffffffffffffffffffffffffff1614610a2d576040517f08c379a0000000000000000000000000000000000000000000000000000000008152600401610a2490612ab6565b60405180910390fd5b60026040518060600160405290816000820160009054906101000a900460ff1660ff1660ff1681526020016000820160019054906101000a900463ffffffff1663ffffffff1663ffffffff1681526020016000820160059054906101000a900463ffffffff1663ffffffff1663ffffffff1681525050905090565b60008060009054906101000a900473ffffffffffffffffffffffffffffffffffffffff16905090565b610ad9611f33565b610ae1611741565b73ffffffffffffffffffffffffffffffffffffffff16610aff610aa8565b73ffffffffffffffffffffffffffffffffffffffff1614610b55576040517f08c379a0000000000000000000000000000000000000000000000000000000008152600401610b4c90612ab6565b60405180910390fd5b6000600a60008473ffffffffffffffffffffffffffffffffffffffff1673ffffffffffffffffffffffffffffffffffffffff1681526020019081526020016000206040518060a0016040529081600082018054610bb190612dfe565b80601f0160208091040260200160405190810160405280929190818152602001828054610bdd90612dfe565b8015610c2a5780601f10610bff57610100808354040283529160200191610c2a565b820191906000526020600020905b815481529060010190602001808311610c0d57829003601f168201915b505050505081526020016001820160009054906101000a900473ffffffffffffffffffffffffffffffffffffffff1673ffffffffffffffffffffffffffffffffffffffff1673ffffffffffffffffffffffffffffffffffffffff1681526020016001820160149054906101000a900460ff1660ff1660ff16815260200160028201548152602001600382015481525050905080915050919050565b600080610cd28585611149565b90506000610cdf82611841565b90508673ffffffffffffffffffffffffffffffffffffffff16610d02828661117c565b73ffffffffffffffffffffffffffffffffffffffff161492505050949350505050565b610d2d611f7b565b610d35611741565b73ffffffffffffffffffffffffffffffffffffffff16610d53610aa8565b73ffffffffffffffffffffffffffffffffffffffff1614610da9576040517f08c379a0000000000000000000000000000000000000000000000000000000008152600401610da090612ab6565b60405180910390fd5b60036040518060600160405290816000820160009054906101000a900463ffffffff1663ffffffff1663ffffffff168152602001600182015481526020016002820160009054906101000a900463ffffffff1663ffffffff1663ffffffff1681525050905090565b610e19611f33565b826006805490508110610e61576040517f08c379a0000000000000000000000000000000000000000000000000000000008152600401610e5890612ad6565b60405180910390fd5b600960008473ffffffffffffffffffffffffffffffffffffffff1673ffffffffffffffffffffffffffffffffffffffff16815260200190815260200160002060009054906101000a900460ff16610eed576040517f08c379a0000000000000000000000000000000000000000000000000000000008152600401610ee490612af6565b60405180910390fd5b610f3e84600860008673ffffffffffffffffffffffffffffffffffffffff1673ffffffffffffffffffffffffffffffffffffffff16815260200190815260200160002061174990919063ffffffff16565b610f7d576040517f08c379a0000000000000000000000000000000000000000000000000000000008152600401610f7490612b16565b60405180910390fd5b610f8683610ad1565b91505092915050565b610f97611741565b73ffffffffffffffffffffffffffffffffffffffff16610fb5610aa8565b73ffffffffffffffffffffffffffffffffffffffff161461100b576040517f08c379a000000000000000000000000000000000000000000000000000000000815260040161100290612ab6565b60405180910390fd5b82600360000160006101000a81548163ffffffff021916908363ffffffff1602179055508160036001018190555080600360020160006101000a81548163ffffffff021916908363ffffffff160217905550505050565b61106a611741565b73ffffffffffffffffffffffffffffffffffffffff16611088610aa8565b73ffffffffffffffffffffffffffffffffffffffff16146110de576040517f08c379a00000000000000000000000000000000000000000000000000000000081526004016110d590612ab6565b60405180910390fd5b82600260000160006101000a81548160ff021916908360ff16021790555081600260000160056101000a81548163ffffffff021916908363ffffffff16021790555080600260000160016101000a81548163ffffffff021916908363ffffffff160217905550505050565b6000828260405160200161115e929190612856565b60405160208183030381529060405280519060200120905092915050565b60006111888383611853565b905092915050565b611198611741565b73ffffffffffffffffffffffffffffffffffffffff166111b6610aa8565b73ffffffffffffffffffffffffffffffffffffffff161461120c576040517f08c379a000000000000000000000000000000000000000000000000000000000815260040161120390612ab6565b60405180910390fd5b600073ffffffffffffffffffffffffffffffffffffffff168173ffffffffffffffffffffffffffffffffffffffff16141561127c576040517f08c379a000000000000000000000000000000000000000000000000000000000815260040161127390612a16565b60405180910390fd5b6112858161177d565b50565b6000806112958585611149565b905060006112a282611841565b90508673ffffffffffffffffffffffffffffffffffffffff166112c5828661117c565b73ffffffffffffffffffffffffffffffffffffffff161492505050949350505050565b6002600154141561132e576040517f08c379a000000000000000000000000000000000000000000000000000000000815260040161132590612b36565b60405180910390fd5b60026001819055506000151560096000611346611741565b73ffffffffffffffffffffffffffffffffffffffff1673ffffffffffffffffffffffffffffffffffffffff16815260200190815260200160002060009054906101000a900460ff161515146113d0576040517f08c379a00000000000000000000000000000000000000000000000000000000081526004016113c7906129f6565b60405180910390fd5b6113ea6113db610aa8565b836113e4611741565b84611288565b611429576040517f08c379a000000000000000000000000000000000000000000000000000000000815260040161142090612b56565b60405180910390fd5b600260000160009054906101000a900460ff16600a6000611448611741565b73ffffffffffffffffffffffffffffffffffffffff1673ffffffffffffffffffffffffffffffffffffffff16815260200190815260200160002060010160146101000a81548160ff021916908360ff1602179055506114a5611741565b600a60006114b1611741565b73ffffffffffffffffffffffffffffffffffffffff1673ffffffffffffffffffffffffffffffffffffffff16815260200190815260200160002060010160006101000a81548173ffffffffffffffffffffffffffffffffffffffff021916908373ffffffffffffffffffffffffffffffffffffffff16021790555081600a6000611539611741565b73ffffffffffffffffffffffffffffffffffffffff1673ffffffffffffffffffffffffffffffffffffffff1681526020019081526020016000206000019080519060200190611589929190611e7d565b5042600a6000611597611741565b73ffffffffffffffffffffffffffffffffffffffff1673ffffffffffffffffffffffffffffffffffffffff16815260200190815260200160002060020181905550600260000160019054906101000a900463ffffffff1663ffffffff16426115ff9190612c8d565b600a600061160b611741565b73ffffffffffffffffffffffffffffffffffffffff1673ffffffffffffffffffffffffffffffffffffffff1681526020019081526020016000206003018190555060016009600061165a611741565b73ffffffffffffffffffffffffffffffffffffffff1673ffffffffffffffffffffffffffffffffffffffff16815260200190815260200160002060006101000a81548160ff0219169083151502179055507fa038f8a857c01feb8216609a7e3c15ce623dd71fc1f46882e546b99a25e6e7bb826116d5611741565b600a60006116e1611741565b73ffffffffffffffffffffffffffffffffffffffff1673ffffffffffffffffffffffffffffffffffffffff1681526020019081526020016000206003015460405161172e93929190612978565b60405180910390a1600180819055505050565b600033905090565b600061175b836000018360001b61187a565b905092915050565b6000611775836000018360001b61189d565b905092915050565b60008060009054906101000a900473ffffffffffffffffffffffffffffffffffffffff169050816000806101000a81548173ffffffffffffffffffffffffffffffffffffffff021916908373ffffffffffffffffffffffffffffffffffffffff1602179055508173ffffffffffffffffffffffffffffffffffffffff168173ffffffffffffffffffffffffffffffffffffffff167f8be0079c531659141344cd1fd0a4f28419497f9722a3daafe3b4186f6b6457e060405160405180910390a35050565b600061184c8261190d565b9050919050565b6000806000611862858561193d565b9150915061186f816119c0565b819250505092915050565b600080836001016000848152602001908152602001600020541415905092915050565b60006118a9838361187a565b611902578260000182908060018154018082558091505060019003906000526020600020016000909190919091505582600001805490508360010160008481526020019081526020016000208190555060019050611907565b600090505b92915050565b600081604051602001611920919061287e565b604051602081830303815290604052805190602001209050919050565b60008060418351141561197f5760008060006020860151925060408601519150606086015160001a905061197387828585611d11565b945094505050506119b9565b6040835114156119b05760008060208501519150604085015190506119a5868383611e1e565b9350935050506119b9565b60006002915091505b9250929050565b600060048111156119fa577f4e487b7100000000000000000000000000000000000000000000000000000000600052602160045260246000fd5b816004811115611a33577f4e487b7100000000000000000000000000000000000000000000000000000000600052602160045260246000fd5b1415611a3e57611d0e565b60016004811115611a78577f4e487b7100000000000000000000000000000000000000000000000000000000600052602160045260246000fd5b816004811115611ab1577f4e487b7100000000000000000000000000000000000000000000000000000000600052602160045260246000fd5b1415611af2576040517f08c379a0000000000000000000000000000000000000000000000000000000008152600401611ae9906129b6565b60405180910390fd5b60026004811115611b2c577f4e487b7100000000000000000000000000000000000000000000000000000000600052602160045260246000fd5b816004811115611b65577f4e487b7100000000000000000000000000000000000000000000000000000000600052602160045260246000fd5b1415611ba6576040517f08c379a0000000000000000000000000000000000000000000000000000000008152600401611b9d906129d6565b60405180910390fd5b60036004811115611be0577f4e487b7100000000000000000000000000000000000000000000000000000000600052602160045260246000fd5b816004811115611c19577f4e487b7100000000000000000000000000000000000000000000000000000000600052602160045260246000fd5b1415611c5a576040517f08c379a0000000000000000000000000000000000000000000000000000000008152600401611c5190612a36565b60405180910390fd5b600480811115611c93577f4e487b7100000000000000000000000000000000000000000000000000000000600052602160045260246000fd5b816004811115611ccc577f4e487b7100000000000000000000000000000000000000000000000000000000600052602160045260246000fd5b1415611d0d576040517f08c379a0000000000000000000000000000000000000000000000000000000008152600401611d0490612a76565b60405180910390fd5b5b50565b6000807f7fffffffffffffffffffffffffffffff5d576e7357a4501ddfe92f46681b20a08360001c1115611d4c576000600391509150611e15565b601b8560ff1614158015611d645750601c8560ff1614155b15611d76576000600491509150611e15565b600060018787878760405160008152602001604052604051611d9b94939291906128f5565b6020604051602081039080840390855afa158015611dbd573d6000803e3d6000fd5b505050602060405103519050600073ffffffffffffffffffffffffffffffffffffffff168173ffffffffffffffffffffffffffffffffffffffff161415611e0c57600060019250925050611e15565b80600092509250505b94509492505050565b60008060007f7fffffffffffffffffffffffffffffffffffffffffffffffffffffffffffffff60001b841690506000601b60ff8660001c901c611e619190612c8d565b9050611e6f87828885611d11565b935093505050935093915050565b828054611e8990612dfe565b90600052602060002090601f016020900481019282611eab5760008555611ef2565b82601f10611ec457805160ff1916838001178555611ef2565b82800160010185558215611ef2579182015b82811115611ef1578251825591602001919060010190611ed6565b5b509050611eff9190611fa8565b5090565b6040518060600160405280600060ff168152602001600063ffffffff168152602001600063ffffffff1681525090565b6040518060a0016040528060608152602001600073ffffffffffffffffffffffffffffffffffffffff168152602001600060ff16815260200160008152602001600081525090565b6040518060600160405280600063ffffffff16815260200160008152602001600063ffffffff1681525090565b5b80821115611fc1576000816000905550600101611fa9565b5090565b6000611fd8611fd384612bf3565b612bce565b905082815260208101848484011115611ff057600080fd5b611ffb848285612dbc565b509392505050565b600061201661201184612c24565b612bce565b90508281526020810184848401111561202e57600080fd5b612039848285612dbc565b509392505050565b60008135905061205081613239565b92915050565b60008135905061206581613250565b92915050565b600082601f83011261207c57600080fd5b813561208c848260208601611fc5565b91505092915050565b600082601f8301126120a657600080fd5b81356120b6848260208601612003565b91505092915050565b6000813590506120ce81613267565b92915050565b6000813590506120e38161327e565b92915050565b6000813590506120f881613295565b92915050565b60006020828403121561211057600080fd5b600061211e84828501612041565b91505092915050565b6000806000806080858703121561213d57600080fd5b600061214b87828801612041565b945050602085013567ffffffffffffffff81111561216857600080fd5b61217487828801612095565b935050604061218587828801612041565b925050606085013567ffffffffffffffff8111156121a257600080fd5b6121ae8782880161206b565b91505092959194509250565b600080604083850312156121cd57600080fd5b60006121db85828601612056565b925050602083013567ffffffffffffffff8111156121f857600080fd5b6122048582860161206b565b9150509250929050565b6000806040838503121561222157600080fd5b600083013567ffffffffffffffff81111561223b57600080fd5b61224785828601612095565b925050602061225885828601612041565b9150509250929050565b6000806040838503121561227557600080fd5b600083013567ffffffffffffffff81111561228f57600080fd5b61229b85828601612095565b925050602083013567ffffffffffffffff8111156122b857600080fd5b6122c48582860161206b565b9150509250929050565b6000602082840312156122e057600080fd5b60006122ee848285016120bf565b91505092915050565b6000806040838503121561230a57600080fd5b6000612318858286016120bf565b925050602061232985828601612041565b9150509250929050565b60008060006060848603121561234857600080fd5b6000612356868287016120d4565b9350506020612367868287016120bf565b9250506040612378868287016120d4565b9150509250925092565b60008060006060848603121561239757600080fd5b60006123a5868287016120e9565b93505060206123b6868287016120d4565b92505060406123c7868287016120d4565b9150509250925092565b6123da81612d86565b82525050565b6123e981612d17565b82525050565b6123f881612d17565b82525050565b61240f61240a82612d17565b612e61565b82525050565b61241e81612d29565b82525050565b61242d81612d35565b82525050565b61244461243f82612d35565b612e73565b82525050565b600061245582612c55565b61245f8185612c60565b935061246f818560208601612dcb565b61247881612f1c565b840191505092915050565b600061248e82612c55565b6124988185612c71565b93506124a8818560208601612dcb565b6124b181612f1c565b840191505092915050565b60006124c782612c55565b6124d18185612c82565b93506124e1818560208601612dcb565b80840191505092915050565b60006124fa601883612c71565b915061250582612f3a565b602082019050919050565b600061251d601f83612c71565b915061252882612f63565b602082019050919050565b6000612540601c83612c82565b915061254b82612f8c565b601c82019050919050565b6000612563601983612c71565b915061256e82612fb5565b602082019050919050565b6000612586602683612c71565b915061259182612fde565b604082019050919050565b60006125a9602283612c71565b91506125b48261302d565b604082019050919050565b60006125cc601f83612c71565b91506125d78261307c565b602082019050919050565b60006125ef602283612c71565b91506125fa826130a5565b604082019050919050565b6000612612601d83612c71565b915061261d826130f4565b602082019050919050565b6000612635602083612c71565b91506126408261311d565b602082019050919050565b6000612658602183612c71565b915061266382613146565b604082019050919050565b600061267b601c83612c71565b915061268682613195565b602082019050919050565b600061269e601e83612c71565b91506126a9826131be565b602082019050919050565b60006126c1601f83612c71565b91506126cc826131e7565b602082019050919050565b60006126e4601e83612c71565b91506126ef82613210565b602082019050919050565b600060a0830160008301518482036000860152612717828261244a565b915050602083015161272c60208601826123e0565b50604083015161273f6040860182612821565b50606083015161275260608601826127f4565b50608083015161276560808601826127f4565b508091505092915050565b6060820160008201516127866000850182612821565b5060208201516127996020850182612812565b5060408201516127ac6040850182612812565b50505050565b6060820160008201516127c86000850182612812565b5060208201516127db60208501826127f4565b5060408201516127ee6040850182612812565b50505050565b6127fd81612d5f565b82525050565b61280c81612d5f565b82525050565b61281b81612d69565b82525050565b61282a81612d79565b82525050565b61283981612d79565b82525050565b600061284b82846124bc565b915081905092915050565b600061286282856124bc565b915061286e82846123fe565b6014820191508190509392505050565b600061288982612533565b91506128958284612433565b60208201915081905092915050565b60006020820190506128b960008301846123ef565b92915050565b60006020820190506128d46000830184612415565b92915050565b60006020820190506128ef6000830184612424565b92915050565b600060808201905061290a6000830187612424565b6129176020830186612830565b6129246040830185612424565b6129316060830184612424565b95945050505050565b600060608201905081810360008301526129548186612483565b905061296360208301856123d1565b6129706040830184612803565b949350505050565b600060608201905081810360008301526129928186612483565b90506129a160208301856123ef565b6129ae6040830184612803565b949350505050565b600060208201905081810360008301526129cf816124ed565b9050919050565b600060208201905081810360008301526129ef81612510565b9050919050565b60006020820190508181036000830152612a0f81612556565b9050919050565b60006020820190508181036000830152612a2f81612579565b9050919050565b60006020820190508181036000830152612a4f8161259c565b9050919050565b60006020820190508181036000830152612a6f816125bf565b9050919050565b60006020820190508181036000830152612a8f816125e2565b9050919050565b60006020820190508181036000830152612aaf81612605565b9050919050565b60006020820190508181036000830152612acf81612628565b9050919050565b60006020820190508181036000830152612aef8161264b565b9050919050565b60006020820190508181036000830152612b0f8161266e565b9050919050565b60006020820190508181036000830152612b2f81612691565b9050919050565b60006020820190508181036000830152612b4f816126b4565b9050919050565b60006020820190508181036000830152612b6f816126d7565b9050919050565b60006020820190508181036000830152612b9081846126fa565b905092915050565b6000606082019050612bad6000830184612770565b92915050565b6000606082019050612bc860008301846127b2565b92915050565b6000612bd8612be9565b9050612be48282612e30565b919050565b6000604051905090565b600067ffffffffffffffff821115612c0e57612c0d612eed565b5b612c1782612f1c565b9050602081019050919050565b600067ffffffffffffffff821115612c3f57612c3e612eed565b5b612c4882612f1c565b9050602081019050919050565b600081519050919050565b600082825260208201905092915050565b600082825260208201905092915050565b600081905092915050565b6000612c9882612d5f565b9150612ca383612d5f565b9250827fffffffffffffffffffffffffffffffffffffffffffffffffffffffffffffffff03821115612cd857612cd7612e8f565b5b828201905092915050565b6000612cee82612d5f565b9150612cf983612d5f565b925082821015612d0c57612d0b612e8f565b5b828203905092915050565b6000612d2282612d3f565b9050919050565b60008115159050919050565b6000819050919050565b600073ffffffffffffffffffffffffffffffffffffffff82169050919050565b6000819050919050565b600063ffffffff82169050919050565b600060ff82169050919050565b6000612d9182612d98565b9050919050565b6000612da382612daa565b9050919050565b6000612db582612d3f565b9050919050565b82818337600083830152505050565b60005b83811015612de9578082015181840152602081019050612dce565b83811115612df8576000848401525b50505050565b60006002820490506001821680612e1657607f821691505b60208210811415612e2a57612e29612ebe565b5b50919050565b612e3982612f1c565b810181811067ffffffffffffffff82111715612e5857612e57612eed565b5b80604052505050565b6000612e6c82612e7d565b9050919050565b6000819050919050565b6000612e8882612f2d565b9050919050565b7f4e487b7100000000000000000000000000000000000000000000000000000000600052601160045260246000fd5b7f4e487b7100000000000000000000000000000000000000000000000000000000600052602260045260246000fd5b7f4e487b7100000000000000000000000000000000000000000000000000000000600052604160045260246000fd5b6000601f19601f8301169050919050565b60008160601b9050919050565b7f45434453413a20696e76616c6964207369676e61747572650000000000000000600082015250565b7f45434453413a20696e76616c6964207369676e6174757265206c656e67746800600082015250565b7f19457468657265756d205369676e6564204d6573736167653a0a333200000000600082015250565b7f4b5943506c6174666f726d3a204b594320697320657869737400000000000000600082015250565b7f4f776e61626c653a206e6577206f776e657220697320746865207a65726f206160008201527f6464726573730000000000000000000000000000000000000000000000000000602082015250565b7f45434453413a20696e76616c6964207369676e6174757265202773272076616c60008201527f7565000000000000000000000000000000000000000000000000000000000000602082015250565b7f4b5943506c6174666f726d3a204b5943496e666f207761732073686172656400600082015250565b7f45434453413a20696e76616c6964207369676e6174757265202776272076616c60008201527f7565000000000000000000000000000000000000000000000000000000000000602082015250565b7f4b5943506c6174666f726d3a2050726f6a656374206973206578697374000000600082015250565b7f4f776e61626c653a2063616c6c6572206973206e6f7420746865206f776e6572600082015250565b7f4b5943506c6174666f726d3a2050726f6a656374206973206e6f74206578697360008201527f7400000000000000000000000000000000000000000000000000000000000000602082015250565b7f4b5943506c6174666f726d3a204b59432069736e277420657869737400000000600082015250565b7f4b5943506c6174666f726d3a204b5943207761736e2774207368617265640000600082015250565b7f5265656e7472616e637947756172643a207265656e7472616e742063616c6c00600082015250565b7f4b5943506c6174666f726d3a20496e76616c6964205369676e61747572650000600082015250565b61324281612d17565b811461324d57600080fd5b50565b61325981612d35565b811461326457600080fd5b50565b61327081612d5f565b811461327b57600080fd5b50565b61328781612d69565b811461329257600080fd5b50565b61329e81612d79565b81146132a957600080fd5b5056fea2646970667358221220841fb1e0c424a7f3e93a862c958c0fefa38dbdd99b180d82a511f0ac2f53acd364736f6c63430008040033",
  "linkReferences": {},
  "deployedLinkReferences": {}
}