{
  "_format": "hh-sol-artifact-1",
  "contractName": "KYCPlatform",
  "sourceName": "contracts/KYCPlatform.sol",
  "abi": [
    {
      "anonymous": false,
      "inputs": [
        {
          "indexed": false,
          "internalType": "string",
          "name": "uid",
          "type": "string"
        },
        {
          "indexed": false,
          "internalType": "address",
          "name": "userAddress",
          "type": "address"
        },
        {
          "indexed": false,
          "internalType": "uint256",
          "name": "kycExpireTime",
          "type": "uint256"
        }
      ],
      "name": "KycCreated",
      "type": "event"
    },
    {
      "anonymous": false,
      "inputs": [
        {
          "indexed": true,
          "internalType": "address",
          "name": "previousOwner",
          "type": "address"
        },
        {
          "indexed": true,
          "internalType": "address",
          "name": "newOwner",
          "type": "address"
        }
      ],
      "name": "OwnershipTransferred",
      "type": "event"
    },
    {
      "anonymous": false,
      "inputs": [
        {
          "indexed": true,
          "internalType": "uint256",
          "name": "projectIndex",
          "type": "uint256"
        },
        {
          "indexed": false,
          "internalType": "string",
          "name": "projectId",
          "type": "string"
        },
        {
          "indexed": false,
          "internalType": "address",
          "name": "creator",
          "type": "address"
        },
        {
          "indexed": false,
          "internalType": "uint256",
          "name": "projectExpireTime",
          "type": "uint256"
        }
      ],
      "name": "ProjectCreated",
      "type": "event"
    },
    {
      "inputs": [
        {
          "internalType": "string",
          "name": "_uid",
          "type": "string"
        },
        {
          "internalType": "bytes",
          "name": "_signature",
          "type": "bytes"
        }
      ],
      "name": "createKYCMember",
      "outputs": [],
      "stateMutability": "nonpayable",
      "type": "function"
    },
    {
      "inputs": [
        {
          "internalType": "string",
          "name": "_projectId",
          "type": "string"
        },
        {
          "internalType": "bytes",
          "name": "_signature",
          "type": "bytes"
        }
      ],
      "name": "createProject",
      "outputs": [],
      "stateMutability": "payable",
      "type": "function"
    },
    {
      "inputs": [
        {
          "internalType": "string",
          "name": "_uid",
          "type": "string"
        },
        {
          "internalType": "address",
          "name": "_userAddress",
          "type": "address"
        }
      ],
      "name": "getCreateKYCMessageHash",
      "outputs": [
        {
          "internalType": "bytes32",
          "name": "",
          "type": "bytes32"
        }
      ],
      "stateMutability": "pure",
      "type": "function"
    },
    {
      "inputs": [
        {
          "internalType": "string",
          "name": "_projectId",
          "type": "string"
        },
        {
          "internalType": "address",
          "name": "_userAddress",
          "type": "address"
        }
      ],
      "name": "getCreateProjectMessageHash",
      "outputs": [
        {
          "internalType": "bytes32",
          "name": "",
          "type": "bytes32"
        }
      ],
      "stateMutability": "pure",
      "type": "function"
    },
    {
      "inputs": [
        {
          "internalType": "uint256",
          "name": "_projectIndex",
          "type": "uint256"
        },
        {
          "internalType": "address",
          "name": "_userAddress",
          "type": "address"
        }
      ],
      "name": "getKYCByProject",
      "outputs": [
        {
          "components": [
            {
              "internalType": "string",
              "name": "uid",
              "type": "string"
            },
            {
              "internalType": "address",
              "name": "userAddress",
              "type": "address"
            },
            {
              "internalType": "uint8",
              "name": "version",
              "type": "uint8"
            },
            {
              "internalType": "uint256",
              "name": "createdAt",
              "type": "uint256"
            },
            {
              "internalType": "uint256",
              "name": "kycExpireTime",
              "type": "uint256"
            }
          ],
          "internalType": "struct KYCPlatform.KycInfo",
          "name": "",
          "type": "tuple"
        }
      ],
      "stateMutability": "view",
      "type": "function"
    },
    {
      "inputs": [
        {
          "internalType": "address",
          "name": "_userAdress",
          "type": "address"
        }
      ],
      "name": "getKYCInfo",
      "outputs": [
        {
          "components": [
            {
              "internalType": "string",
              "name": "uid",
              "type": "string"
            },
            {
              "internalType": "address",
              "name": "userAddress",
              "type": "address"
            },
            {
              "internalType": "uint8",
              "name": "version",
              "type": "uint8"
            },
            {
              "internalType": "uint256",
              "name": "createdAt",
              "type": "uint256"
            },
            {
              "internalType": "uint256",
              "name": "kycExpireTime",
              "type": "uint256"
            }
          ],
          "internalType": "struct KYCPlatform.KycInfo",
          "name": "",
          "type": "tuple"
        }
      ],
      "stateMutability": "view",
      "type": "function"
    },
    {
      "inputs": [],
      "name": "getSettingKYC",
      "outputs": [
        {
          "components": [
            {
              "internalType": "uint8",
              "name": "version",
              "type": "uint8"
            },
            {
              "internalType": "uint32",
              "name": "renewExpireTime",
              "type": "uint32"
            },
            {
              "internalType": "uint32",
              "name": "durationUpdateVersion",
              "type": "uint32"
            }
          ],
          "internalType": "struct KYCPlatform.SettingKYC",
          "name": "",
          "type": "tuple"
        }
      ],
      "stateMutability": "view",
      "type": "function"
    },
    {
      "inputs": [],
      "name": "getSettingProject",
      "outputs": [
        {
          "components": [
            {
              "internalType": "uint32",
              "name": "expireEachProject",
              "type": "uint32"
            },
            {
              "internalType": "uint256",
              "name": "serviceFee",
              "type": "uint256"
            },
            {
              "internalType": "uint32",
              "name": "durationPaymentFee",
              "type": "uint32"
            }
          ],
          "internalType": "struct KYCPlatform.SettingProject",
          "name": "",
          "type": "tuple"
        }
      ],
      "stateMutability": "view",
      "type": "function"
    },
    {
      "inputs": [
        {
          "internalType": "bytes32",
          "name": "_messageHash",
          "type": "bytes32"
        },
        {
          "internalType": "bytes",
          "name": "_singature",
          "type": "bytes"
        }
      ],
      "name": "getSingerAdderss",
      "outputs": [
        {
          "internalType": "address",
          "name": "singer",
          "type": "address"
        }
      ],
      "stateMutability": "pure",
      "type": "function"
    },
    {
      "inputs": [],
      "name": "owner",
      "outputs": [
        {
          "internalType": "address",
          "name": "",
          "type": "address"
        }
      ],
      "stateMutability": "view",
      "type": "function"
    },
    {
      "inputs": [],
      "name": "renounceOwnership",
      "outputs": [],
      "stateMutability": "nonpayable",
      "type": "function"
    },
    {
      "inputs": [
        {
          "internalType": "uint8",
          "name": "_version",
          "type": "uint8"
        },
        {
          "internalType": "uint32",
          "name": "_durationUpdateVersion",
          "type": "uint32"
        },
        {
          "internalType": "uint32",
          "name": "_renewExpireTime",
          "type": "uint32"
        }
      ],
      "name": "setSettingKYC",
      "outputs": [],
      "stateMutability": "nonpayable",
      "type": "function"
    },
    {
      "inputs": [
        {
          "internalType": "uint32",
          "name": "_expireEachProject",
          "type": "uint32"
        },
        {
          "internalType": "uint256",
          "name": "_serviceFee",
          "type": "uint256"
        },
        {
          "internalType": "uint32",
          "name": "_durationPaymentFee",
          "type": "uint32"
        }
      ],
      "name": "setSettingProject",
      "outputs": [],
      "stateMutability": "nonpayable",
      "type": "function"
    },
    {
      "inputs": [
        {
          "internalType": "address",
          "name": "newOwner",
          "type": "address"
        }
      ],
      "name": "transferOwnership",
      "outputs": [],
      "stateMutability": "nonpayable",
      "type": "function"
    },
    {
      "inputs": [
        {
          "internalType": "address",
          "name": "_singer",
          "type": "address"
        },
        {
          "internalType": "string",
          "name": "_uid",
          "type": "string"
        },
        {
          "internalType": "address",
          "name": "_userAddress",
          "type": "address"
        },
        {
          "internalType": "bytes",
          "name": "_signature",
          "type": "bytes"
        }
      ],
      "name": "verifyCreateKYC",
      "outputs": [
        {
          "internalType": "bool",
          "name": "",
          "type": "bool"
        }
      ],
      "stateMutability": "pure",
      "type": "function"
    },
    {
      "inputs": [
        {
          "internalType": "address",
          "name": "_singer",
          "type": "address"
        },
        {
          "internalType": "string",
          "name": "_projectId",
          "type": "string"
        },
        {
          "internalType": "address",
          "name": "_userAddress",
          "type": "address"
        },
        {
          "internalType": "bytes",
          "name": "_signature",
          "type": "bytes"
        }
      ],
      "name": "verifyCreateProject",
      "outputs": [
        {
          "internalType": "bool",
          "name": "",
          "type": "bool"
        }
      ],
      "stateMutability": "pure",
      "type": "function"
    }
  ],
  "bytecode": "0x60806040523480156200001157600080fd5b5062000032620000266200003f60201b60201c565b6200004760201b60201c565b600180819055506200010b565b600033905090565b60008060009054906101000a900473ffffffffffffffffffffffffffffffffffffffff169050816000806101000a81548173ffffffffffffffffffffffffffffffffffffffff021916908373ffffffffffffffffffffffffffffffffffffffff1602179055508173ffffffffffffffffffffffffffffffffffffffff168173ffffffffffffffffffffffffffffffffffffffff167f8be0079c531659141344cd1fd0a4f28419497f9722a3daafe3b4186f6b6457e060405160405180910390a35050565b613310806200011b6000396000f3fe6080604052600436106100f35760003560e01c8063b3d3c7cf1161008a578063e989b14011610059578063e989b1401461032f578063f2fde38b1461036c578063f86fa48514610395578063fa397d22146103d2576100f3565b8063b3d3c7cf14610263578063c077e8ce146102a0578063c133bbf7146102c9578063dd51ef78146102f2576100f3565b80638da5cb5b116100c65780638da5cb5b1461019357806395802804146101be578063a5edb807146101fb578063a81d1cec14610238576100f3565b806334d6717e146100f8578063715018a61461013557806383d13d0f1461014c578063856d63d614610168575b600080fd5b34801561010457600080fd5b5061011f600480360381019061011a91906120d5565b6103fb565b60405161012c91906127f6565b60405180910390f35b34801561014157600080fd5b5061014a61042e565b005b61016660048036038101906101619190612129565b6104b6565b005b34801561017457600080fd5b5061017d6107c3565b60405161018a9190612af4565b60405180910390f35b34801561019f57600080fd5b506101a86108c2565b6040516101b591906127c0565b60405180910390f35b3480156101ca57600080fd5b506101e560048036038101906101e09190611fc5565b6108eb565b6040516101f29190612ad2565b60405180910390f35b34801561020757600080fd5b50610222600480360381019061021d9190611fee565b610b83565b60405161022f91906127db565b60405180910390f35b34801561024457600080fd5b5061024d610be3565b60405161025a9190612b0f565b60405180910390f35b34801561026f57600080fd5b5061028a60048036038101906102859190612195565b610ccf565b6040516102979190612ad2565b60405180910390f35b3480156102ac57600080fd5b506102c760048036038101906102c291906121d1565b610e60565b005b3480156102d557600080fd5b506102f060048036038101906102eb9190612220565b610f33565b005b3480156102fe57600080fd5b50610319600480360381019061031491906120d5565b61101a565b60405161032691906127f6565b60405180910390f35b34801561033b57600080fd5b5061035660048036038101906103519190612081565b61104d565b60405161036391906127c0565b60405180910390f35b34801561037857600080fd5b50610393600480360381019061038e9190611fc5565b611061565b005b3480156103a157600080fd5b506103bc60048036038101906103b79190611fee565b611159565b6040516103c991906127db565b60405180910390f35b3480156103de57600080fd5b506103f960048036038101906103f49190612129565b6111b9565b005b6000828260405160200161041092919061275d565b60405160208183030381529060405280519060200120905092915050565b610436611612565b73ffffffffffffffffffffffffffffffffffffffff166104546108c2565b73ffffffffffffffffffffffffffffffffffffffff16146104aa576040517f08c379a00000000000000000000000000000000000000000000000000000000081526004016104a190612a32565b60405180910390fd5b6104b4600061161a565b565b600260015414156104fc576040517f08c379a00000000000000000000000000000000000000000000000000000000081526004016104f390612a92565b60405180910390fd5b6002600181905550600015156007836040516105189190612746565b908152602001604051809103902060009054906101000a900460ff16151514610576576040517f08c379a000000000000000000000000000000000000000000000000000000000815260040161056d90612a12565b60405180910390fd5b6105906105816108c2565b8361058a611612565b84610b83565b6105cf576040517f08c379a00000000000000000000000000000000000000000000000000000000081526004016105c690612ab2565b60405180910390fd5b6003600101543414610616576040517f08c379a000000000000000000000000000000000000000000000000000000000815260040161060d90612972565b60405180910390fd5b6000610620611612565b905061062b346116de565b6000600360000160009054906101000a900463ffffffff1663ffffffff16426106549190612bf4565b9050600660405180608001604052808681526020018381526020014281526020018473ffffffffffffffffffffffffffffffffffffffff16815250908060018154018082558091505060019003906000526020600020906004020160009091909190915060008201518160000190805190602001906106d4929190611d44565b50602082015181600101556040820151816002015560608201518160030160006101000a81548173ffffffffffffffffffffffffffffffffffffffff021916908373ffffffffffffffffffffffffffffffffffffffff160217905550505060016007856040516107449190612746565b908152602001604051809103902060006101000a81548160ff021916908315150217905550600160068054905061077b9190612c4a565b7fa026ee65bff24e0219543a4cec2746ef952b145e2658ac5db36953d7044712a98584846040516107ae93929190612856565b60405180910390a25050600180819055505050565b6107cb611dca565b6107d3611612565b73ffffffffffffffffffffffffffffffffffffffff166107f16108c2565b73ffffffffffffffffffffffffffffffffffffffff1614610847576040517f08c379a000000000000000000000000000000000000000000000000000000000815260040161083e90612a32565b60405180910390fd5b60026040518060600160405290816000820160009054906101000a900460ff1660ff1660ff1681526020016000820160019054906101000a900463ffffffff1663ffffffff1663ffffffff1681526020016000820160059054906101000a900463ffffffff1663ffffffff1663ffffffff1681525050905090565b60008060009054906101000a900473ffffffffffffffffffffffffffffffffffffffff16905090565b6108f3611dfa565b6108fb611612565b73ffffffffffffffffffffffffffffffffffffffff166109196108c2565b73ffffffffffffffffffffffffffffffffffffffff161461096f576040517f08c379a000000000000000000000000000000000000000000000000000000000815260040161096690612a32565b60405180910390fd5b6000600960008473ffffffffffffffffffffffffffffffffffffffff1673ffffffffffffffffffffffffffffffffffffffff1681526020019081526020016000206040518060a00160405290816000820180546109cb90612d65565b80601f01602080910402602001604051908101604052809291908181526020018280546109f790612d65565b8015610a445780601f10610a1957610100808354040283529160200191610a44565b820191906000526020600020905b815481529060010190602001808311610a2757829003601f168201915b505050505081526020016001820160009054906101000a900473ffffffffffffffffffffffffffffffffffffffff1673ffffffffffffffffffffffffffffffffffffffff1673ffffffffffffffffffffffffffffffffffffffff1681526020016001820160149054906101000a900460ff1660ff1660ff168152602001600282015481526020016003820154815250509050600260000160009054906101000a900460ff1660ff16816040015160ff1614610b34576040517f08c379a0000000000000000000000000000000000000000000000000000000008152600401610b2b906129d2565b60405180910390fd5b42816080015111610b7a576040517f08c379a0000000000000000000000000000000000000000000000000000000008152600401610b71906129b2565b60405180910390fd5b80915050919050565b600080610b90858561101a565b90506000610b9d8261179b565b90508673ffffffffffffffffffffffffffffffffffffffff16610bc0828661104d565b73ffffffffffffffffffffffffffffffffffffffff161492505050949350505050565b610beb611e42565b610bf3611612565b73ffffffffffffffffffffffffffffffffffffffff16610c116108c2565b73ffffffffffffffffffffffffffffffffffffffff1614610c67576040517f08c379a0000000000000000000000000000000000000000000000000000000008152600401610c5e90612a32565b60405180910390fd5b60036040518060600160405290816000820160009054906101000a900463ffffffff1663ffffffff1663ffffffff168152602001600182015481526020016002820160009054906101000a900463ffffffff1663ffffffff1663ffffffff1681525050905090565b610cd7611dfa565b610cdf611612565b73ffffffffffffffffffffffffffffffffffffffff16610cfd6108c2565b73ffffffffffffffffffffffffffffffffffffffff1614610d53576040517f08c379a0000000000000000000000000000000000000000000000000000000008152600401610d4a90612a32565b60405180910390fd5b826006805490508110610d9b576040517f08c379a0000000000000000000000000000000000000000000000000000000008152600401610d9290612a52565b60405180910390fd5b600360020160009054906101000a900463ffffffff1663ffffffff1642610dc29190612bf4565b60068581548110610dfc577f4e487b7100000000000000000000000000000000000000000000000000000000600052603260045260246000fd5b90600052602060002090600402016001015411610e4e576040517f08c379a0000000000000000000000000000000000000000000000000000000008152600401610e4590612912565b60405180910390fd5b610e57836108eb565b91505092915050565b610e68611612565b73ffffffffffffffffffffffffffffffffffffffff16610e866108c2565b73ffffffffffffffffffffffffffffffffffffffff1614610edc576040517f08c379a0000000000000000000000000000000000000000000000000000000008152600401610ed390612a32565b60405180910390fd5b82600360000160006101000a81548163ffffffff021916908363ffffffff1602179055508160036001018190555080600360020160006101000a81548163ffffffff021916908363ffffffff160217905550505050565b610f3b611612565b73ffffffffffffffffffffffffffffffffffffffff16610f596108c2565b73ffffffffffffffffffffffffffffffffffffffff1614610faf576040517f08c379a0000000000000000000000000000000000000000000000000000000008152600401610fa690612a32565b60405180910390fd5b82600260000160006101000a81548160ff021916908360ff16021790555081600260000160056101000a81548163ffffffff021916908363ffffffff16021790555080600260000160016101000a81548163ffffffff021916908363ffffffff160217905550505050565b6000828260405160200161102f92919061275d565b60405160208183030381529060405280519060200120905092915050565b600061105983836117ad565b905092915050565b611069611612565b73ffffffffffffffffffffffffffffffffffffffff166110876108c2565b73ffffffffffffffffffffffffffffffffffffffff16146110dd576040517f08c379a00000000000000000000000000000000000000000000000000000000081526004016110d490612a32565b60405180910390fd5b600073ffffffffffffffffffffffffffffffffffffffff168173ffffffffffffffffffffffffffffffffffffffff16141561114d576040517f08c379a000000000000000000000000000000000000000000000000000000000815260040161114490612952565b60405180910390fd5b6111568161161a565b50565b600080611166858561101a565b905060006111738261179b565b90508673ffffffffffffffffffffffffffffffffffffffff16611196828661104d565b73ffffffffffffffffffffffffffffffffffffffff161492505050949350505050565b600260015414156111ff576040517f08c379a00000000000000000000000000000000000000000000000000000000081526004016111f690612a92565b60405180910390fd5b60026001819055506000151560086000611217611612565b73ffffffffffffffffffffffffffffffffffffffff1673ffffffffffffffffffffffffffffffffffffffff16815260200190815260200160002060009054906101000a900460ff161515146112a1576040517f08c379a000000000000000000000000000000000000000000000000000000000815260040161129890612932565b60405180910390fd5b6112bb6112ac6108c2565b836112b5611612565b84611159565b6112fa576040517f08c379a00000000000000000000000000000000000000000000000000000000081526004016112f190612ab2565b60405180910390fd5b600260000160009054906101000a900460ff1660096000611319611612565b73ffffffffffffffffffffffffffffffffffffffff1673ffffffffffffffffffffffffffffffffffffffff16815260200190815260200160002060010160146101000a81548160ff021916908360ff160217905550611376611612565b60096000611382611612565b73ffffffffffffffffffffffffffffffffffffffff1673ffffffffffffffffffffffffffffffffffffffff16815260200190815260200160002060010160006101000a81548173ffffffffffffffffffffffffffffffffffffffff021916908373ffffffffffffffffffffffffffffffffffffffff160217905550816009600061140a611612565b73ffffffffffffffffffffffffffffffffffffffff1673ffffffffffffffffffffffffffffffffffffffff168152602001908152602001600020600001908051906020019061145a929190611d44565b504260096000611468611612565b73ffffffffffffffffffffffffffffffffffffffff1673ffffffffffffffffffffffffffffffffffffffff16815260200190815260200160002060020181905550600260000160019054906101000a900463ffffffff1663ffffffff16426114d09190612bf4565b600960006114dc611612565b73ffffffffffffffffffffffffffffffffffffffff1673ffffffffffffffffffffffffffffffffffffffff1681526020019081526020016000206003018190555060016008600061152b611612565b73ffffffffffffffffffffffffffffffffffffffff1673ffffffffffffffffffffffffffffffffffffffff16815260200190815260200160002060006101000a81548160ff0219169083151502179055507fa038f8a857c01feb8216609a7e3c15ce623dd71fc1f46882e546b99a25e6e7bb826115a6611612565b600960006115b2611612565b73ffffffffffffffffffffffffffffffffffffffff1673ffffffffffffffffffffffffffffffffffffffff168152602001908152602001600020600301546040516115ff93929190612894565b60405180910390a1600180819055505050565b600033905090565b60008060009054906101000a900473ffffffffffffffffffffffffffffffffffffffff169050816000806101000a81548173ffffffffffffffffffffffffffffffffffffffff021916908373ffffffffffffffffffffffffffffffffffffffff1602179055508173ffffffffffffffffffffffffffffffffffffffff168173ffffffffffffffffffffffffffffffffffffffff167f8be0079c531659141344cd1fd0a4f28419497f9722a3daafe3b4186f6b6457e060405160405180910390a35050565b60006116e86108c2565b905060008173ffffffffffffffffffffffffffffffffffffffff1683604051611710906127ab565b60006040518083038185875af1925050503d806000811461174d576040519150601f19603f3d011682016040523d82523d6000602084013e611752565b606091505b5050905080611796576040517f08c379a000000000000000000000000000000000000000000000000000000000815260040161178d90612a72565b60405180910390fd5b505050565b60006117a6826117d4565b9050919050565b60008060006117bc8585611804565b915091506117c981611887565b819250505092915050565b6000816040516020016117e79190612785565b604051602081830303815290604052805190602001209050919050565b6000806041835114156118465760008060006020860151925060408601519150606086015160001a905061183a87828585611bd8565b94509450505050611880565b60408351141561187757600080602085015191506040850151905061186c868383611ce5565b935093505050611880565b60006002915091505b9250929050565b600060048111156118c1577f4e487b7100000000000000000000000000000000000000000000000000000000600052602160045260246000fd5b8160048111156118fa577f4e487b7100000000000000000000000000000000000000000000000000000000600052602160045260246000fd5b141561190557611bd5565b6001600481111561193f577f4e487b7100000000000000000000000000000000000000000000000000000000600052602160045260246000fd5b816004811115611978577f4e487b7100000000000000000000000000000000000000000000000000000000600052602160045260246000fd5b14156119b9576040517f08c379a00000000000000000000000000000000000000000000000000000000081526004016119b0906128d2565b60405180910390fd5b600260048111156119f3577f4e487b7100000000000000000000000000000000000000000000000000000000600052602160045260246000fd5b816004811115611a2c577f4e487b7100000000000000000000000000000000000000000000000000000000600052602160045260246000fd5b1415611a6d576040517f08c379a0000000000000000000000000000000000000000000000000000000008152600401611a64906128f2565b60405180910390fd5b60036004811115611aa7577f4e487b7100000000000000000000000000000000000000000000000000000000600052602160045260246000fd5b816004811115611ae0577f4e487b7100000000000000000000000000000000000000000000000000000000600052602160045260246000fd5b1415611b21576040517f08c379a0000000000000000000000000000000000000000000000000000000008152600401611b1890612992565b60405180910390fd5b600480811115611b5a577f4e487b7100000000000000000000000000000000000000000000000000000000600052602160045260246000fd5b816004811115611b93577f4e487b7100000000000000000000000000000000000000000000000000000000600052602160045260246000fd5b1415611bd4576040517f08c379a0000000000000000000000000000000000000000000000000000000008152600401611bcb906129f2565b60405180910390fd5b5b50565b6000807f7fffffffffffffffffffffffffffffff5d576e7357a4501ddfe92f46681b20a08360001c1115611c13576000600391509150611cdc565b601b8560ff1614158015611c2b5750601c8560ff1614155b15611c3d576000600491509150611cdc565b600060018787878760405160008152602001604052604051611c629493929190612811565b6020604051602081039080840390855afa158015611c84573d6000803e3d6000fd5b505050602060405103519050600073ffffffffffffffffffffffffffffffffffffffff168173ffffffffffffffffffffffffffffffffffffffff161415611cd357600060019250925050611cdc565b80600092509250505b94509492505050565b60008060007f7fffffffffffffffffffffffffffffffffffffffffffffffffffffffffffffff60001b841690506000601b60ff8660001c901c611d289190612bf4565b9050611d3687828885611bd8565b935093505050935093915050565b828054611d5090612d65565b90600052602060002090601f016020900481019282611d725760008555611db9565b82601f10611d8b57805160ff1916838001178555611db9565b82800160010185558215611db9579182015b82811115611db8578251825591602001919060010190611d9d565b5b509050611dc69190611e6f565b5090565b6040518060600160405280600060ff168152602001600063ffffffff168152602001600063ffffffff1681525090565b6040518060a0016040528060608152602001600073ffffffffffffffffffffffffffffffffffffffff168152602001600060ff16815260200160008152602001600081525090565b6040518060600160405280600063ffffffff16815260200160008152602001600063ffffffff1681525090565b5b80821115611e88576000816000905550600101611e70565b5090565b6000611e9f611e9a84612b4f565b612b2a565b905082815260208101848484011115611eb757600080fd5b611ec2848285612d23565b509392505050565b6000611edd611ed884612b80565b612b2a565b905082815260208101848484011115611ef557600080fd5b611f00848285612d23565b509392505050565b600081359050611f1781613267565b92915050565b600081359050611f2c8161327e565b92915050565b600082601f830112611f4357600080fd5b8135611f53848260208601611e8c565b91505092915050565b600082601f830112611f6d57600080fd5b8135611f7d848260208601611eca565b91505092915050565b600081359050611f9581613295565b92915050565b600081359050611faa816132ac565b92915050565b600081359050611fbf816132c3565b92915050565b600060208284031215611fd757600080fd5b6000611fe584828501611f08565b91505092915050565b6000806000806080858703121561200457600080fd5b600061201287828801611f08565b945050602085013567ffffffffffffffff81111561202f57600080fd5b61203b87828801611f5c565b935050604061204c87828801611f08565b925050606085013567ffffffffffffffff81111561206957600080fd5b61207587828801611f32565b91505092959194509250565b6000806040838503121561209457600080fd5b60006120a285828601611f1d565b925050602083013567ffffffffffffffff8111156120bf57600080fd5b6120cb85828601611f32565b9150509250929050565b600080604083850312156120e857600080fd5b600083013567ffffffffffffffff81111561210257600080fd5b61210e85828601611f5c565b925050602061211f85828601611f08565b9150509250929050565b6000806040838503121561213c57600080fd5b600083013567ffffffffffffffff81111561215657600080fd5b61216285828601611f5c565b925050602083013567ffffffffffffffff81111561217f57600080fd5b61218b85828601611f32565b9150509250929050565b600080604083850312156121a857600080fd5b60006121b685828601611f86565b92505060206121c785828601611f08565b9150509250929050565b6000806000606084860312156121e657600080fd5b60006121f486828701611f9b565b935050602061220586828701611f86565b925050604061221686828701611f9b565b9150509250925092565b60008060006060848603121561223557600080fd5b600061224386828701611fb0565b935050602061225486828701611f9b565b925050604061226586828701611f9b565b9150509250925092565b61227881612ced565b82525050565b61228781612c7e565b82525050565b61229681612c7e565b82525050565b6122ad6122a882612c7e565b612dc8565b82525050565b6122bc81612c90565b82525050565b6122cb81612c9c565b82525050565b6122e26122dd82612c9c565b612dda565b82525050565b60006122f382612bb1565b6122fd8185612bc7565b935061230d818560208601612d32565b61231681612e83565b840191505092915050565b600061232c82612bb1565b6123368185612bd8565b9350612346818560208601612d32565b61234f81612e83565b840191505092915050565b600061236582612bb1565b61236f8185612be9565b935061237f818560208601612d32565b80840191505092915050565b6000612398601883612bd8565b91506123a382612ea1565b602082019050919050565b60006123bb601f83612bd8565b91506123c682612eca565b602082019050919050565b60006123de601e83612bd8565b91506123e982612ef3565b602082019050919050565b6000612401601c83612be9565b915061240c82612f1c565b601c82019050919050565b6000612424601983612bd8565b915061242f82612f45565b602082019050919050565b6000612447602683612bd8565b915061245282612f6e565b604082019050919050565b600061246a602383612bd8565b915061247582612fbd565b604082019050919050565b600061248d602283612bd8565b91506124988261300c565b604082019050919050565b60006124b0601a83612bd8565b91506124bb8261305b565b602082019050919050565b60006124d3602c83612bd8565b91506124de82613084565b604082019050919050565b60006124f6602283612bd8565b9150612501826130d3565b604082019050919050565b6000612519601d83612bd8565b915061252482613122565b602082019050919050565b600061253c602083612bd8565b91506125478261314b565b602082019050919050565b600061255f602183612bd8565b915061256a82613174565b604082019050919050565b6000612582602383612bd8565b915061258d826131c3565b604082019050919050565b60006125a5600083612bbc565b91506125b082613212565b600082019050919050565b60006125c8601f83612bd8565b91506125d382613215565b602082019050919050565b60006125eb601e83612bd8565b91506125f68261323e565b602082019050919050565b600060a083016000830151848203600086015261261e82826122e8565b9150506020830151612633602086018261227e565b5060408301516126466040860182612728565b50606083015161265960608601826126fb565b50608083015161266c60808601826126fb565b508091505092915050565b60608201600082015161268d6000850182612728565b5060208201516126a06020850182612719565b5060408201516126b36040850182612719565b50505050565b6060820160008201516126cf6000850182612719565b5060208201516126e260208501826126fb565b5060408201516126f56040850182612719565b50505050565b61270481612cc6565b82525050565b61271381612cc6565b82525050565b61272281612cd0565b82525050565b61273181612ce0565b82525050565b61274081612ce0565b82525050565b6000612752828461235a565b915081905092915050565b6000612769828561235a565b9150612775828461229c565b6014820191508190509392505050565b6000612790826123f4565b915061279c82846122d1565b60208201915081905092915050565b60006127b682612598565b9150819050919050565b60006020820190506127d5600083018461228d565b92915050565b60006020820190506127f060008301846122b3565b92915050565b600060208201905061280b60008301846122c2565b92915050565b600060808201905061282660008301876122c2565b6128336020830186612737565b61284060408301856122c2565b61284d60608301846122c2565b95945050505050565b600060608201905081810360008301526128708186612321565b905061287f602083018561226f565b61288c604083018461270a565b949350505050565b600060608201905081810360008301526128ae8186612321565b90506128bd602083018561228d565b6128ca604083018461270a565b949350505050565b600060208201905081810360008301526128eb8161238b565b9050919050565b6000602082019050818103600083015261290b816123ae565b9050919050565b6000602082019050818103600083015261292b816123d1565b9050919050565b6000602082019050818103600083015261294b81612417565b9050919050565b6000602082019050818103600083015261296b8161243a565b9050919050565b6000602082019050818103600083015261298b8161245d565b9050919050565b600060208201905081810360008301526129ab81612480565b9050919050565b600060208201905081810360008301526129cb816124a3565b9050919050565b600060208201905081810360008301526129eb816124c6565b9050919050565b60006020820190508181036000830152612a0b816124e9565b9050919050565b60006020820190508181036000830152612a2b8161250c565b9050919050565b60006020820190508181036000830152612a4b8161252f565b9050919050565b60006020820190508181036000830152612a6b81612552565b9050919050565b60006020820190508181036000830152612a8b81612575565b9050919050565b60006020820190508181036000830152612aab816125bb565b9050919050565b60006020820190508181036000830152612acb816125de565b9050919050565b60006020820190508181036000830152612aec8184612601565b905092915050565b6000606082019050612b096000830184612677565b92915050565b6000606082019050612b2460008301846126b9565b92915050565b6000612b34612b45565b9050612b408282612d97565b919050565b6000604051905090565b600067ffffffffffffffff821115612b6a57612b69612e54565b5b612b7382612e83565b9050602081019050919050565b600067ffffffffffffffff821115612b9b57612b9a612e54565b5b612ba482612e83565b9050602081019050919050565b600081519050919050565b600081905092915050565b600082825260208201905092915050565b600082825260208201905092915050565b600081905092915050565b6000612bff82612cc6565b9150612c0a83612cc6565b9250827fffffffffffffffffffffffffffffffffffffffffffffffffffffffffffffffff03821115612c3f57612c3e612df6565b5b828201905092915050565b6000612c5582612cc6565b9150612c6083612cc6565b925082821015612c7357612c72612df6565b5b828203905092915050565b6000612c8982612ca6565b9050919050565b60008115159050919050565b6000819050919050565b600073ffffffffffffffffffffffffffffffffffffffff82169050919050565b6000819050919050565b600063ffffffff82169050919050565b600060ff82169050919050565b6000612cf882612cff565b9050919050565b6000612d0a82612d11565b9050919050565b6000612d1c82612ca6565b9050919050565b82818337600083830152505050565b60005b83811015612d50578082015181840152602081019050612d35565b83811115612d5f576000848401525b50505050565b60006002820490506001821680612d7d57607f821691505b60208210811415612d9157612d90612e25565b5b50919050565b612da082612e83565b810181811067ffffffffffffffff82111715612dbf57612dbe612e54565b5b80604052505050565b6000612dd382612de4565b9050919050565b6000819050919050565b6000612def82612e94565b9050919050565b7f4e487b7100000000000000000000000000000000000000000000000000000000600052601160045260246000fd5b7f4e487b7100000000000000000000000000000000000000000000000000000000600052602260045260246000fd5b7f4e487b7100000000000000000000000000000000000000000000000000000000600052604160045260246000fd5b6000601f19601f8301169050919050565b60008160601b9050919050565b7f45434453413a20696e76616c6964207369676e61747572650000000000000000600082015250565b7f45434453413a20696e76616c6964207369676e6174757265206c656e67746800600082015250565b7f4b5943506c6174666f726d3a2050726f6a656374206973206578706972650000600082015250565b7f19457468657265756d205369676e6564204d6573736167653a0a333200000000600082015250565b7f4b5943506c6174666f726d3a204b594320697320657869737400000000000000600082015250565b7f4f776e61626c653a206e6577206f776e657220697320746865207a65726f206160008201527f6464726573730000000000000000000000000000000000000000000000000000602082015250565b7f4b5943506c6174666f726d3a204e6f7420656e6f75676820736572766963652060008201527f6665650000000000000000000000000000000000000000000000000000000000602082015250565b7f45434453413a20696e76616c6964207369676e6174757265202773272076616c60008201527f7565000000000000000000000000000000000000000000000000000000000000602082015250565b7f4b5943506c6174666f726d3a204b594320697320657870697265000000000000600082015250565b7f4b5943506c6174666f726d3a2056657273696f6e204b5943206f66207573657260008201527f206e6f7420636f72726563740000000000000000000000000000000000000000602082015250565b7f45434453413a20696e76616c6964207369676e6174757265202776272076616c60008201527f7565000000000000000000000000000000000000000000000000000000000000602082015250565b7f4b5943506c6174666f726d3a2050726f6a656374206973206578697374000000600082015250565b7f4f776e61626c653a2063616c6c6572206973206e6f7420746865206f776e6572600082015250565b7f4b5943506c6174666f726d3a2050726f6a656374206973206e6f74206578697360008201527f7400000000000000000000000000000000000000000000000000000000000000602082015250565b7f4b5943506c6174666f726d3a2057414c4c45545f5452414e534645525f46414960008201527f4c45440000000000000000000000000000000000000000000000000000000000602082015250565b50565b7f5265656e7472616e637947756172643a207265656e7472616e742063616c6c00600082015250565b7f4b5943506c6174666f726d3a20496e76616c6964205369676e61747572650000600082015250565b61327081612c7e565b811461327b57600080fd5b50565b61328781612c9c565b811461329257600080fd5b50565b61329e81612cc6565b81146132a957600080fd5b50565b6132b581612cd0565b81146132c057600080fd5b50565b6132cc81612ce0565b81146132d757600080fd5b5056fea264697066735822122065138ef21f640745dfd1393ee63f961f576a12fc132f798d1fde2568160a93b464736f6c63430008040033",
  "linkReferences": {},
  "deployedLinkReferences": {}
}