{
  "_format": "hh-sol-artifact-1",
  "contractName": "KYCPlatform",
  "sourceName": "contracts/KYCPlatform.sol",
  "abi": [
    {
      "anonymous": false,
      "inputs": [
        {
          "indexed": false,
          "internalType": "string",
          "name": "uid",
          "type": "string"
        },
        {
          "indexed": false,
          "internalType": "address",
          "name": "userAddress",
          "type": "address"
        },
        {
          "indexed": false,
          "internalType": "uint256",
          "name": "kycExpireTime",
          "type": "uint256"
        }
      ],
      "name": "KycCreated",
      "type": "event"
    },
    {
      "anonymous": false,
      "inputs": [
        {
          "indexed": true,
          "internalType": "uint256",
          "name": "projectIndex",
          "type": "uint256"
        },
        {
          "indexed": false,
          "internalType": "address",
          "name": "userAddress",
          "type": "address"
        }
      ],
      "name": "KycShared",
      "type": "event"
    },
    {
      "anonymous": false,
      "inputs": [
        {
          "indexed": true,
          "internalType": "address",
          "name": "previousOwner",
          "type": "address"
        },
        {
          "indexed": true,
          "internalType": "address",
          "name": "newOwner",
          "type": "address"
        }
      ],
      "name": "OwnershipTransferred",
      "type": "event"
    },
    {
      "anonymous": false,
      "inputs": [
        {
          "indexed": true,
          "internalType": "uint256",
          "name": "projectIndex",
          "type": "uint256"
        },
        {
          "indexed": false,
          "internalType": "string",
          "name": "projectId",
          "type": "string"
        },
        {
          "indexed": false,
          "internalType": "address",
          "name": "creator",
          "type": "address"
        },
        {
          "indexed": false,
          "internalType": "uint256",
          "name": "projectExpireTime",
          "type": "uint256"
        }
      ],
      "name": "ProjectCreated",
      "type": "event"
    },
    {
      "inputs": [
        {
          "internalType": "string",
          "name": "_uid",
          "type": "string"
        },
        {
          "internalType": "bytes",
          "name": "_signature",
          "type": "bytes"
        }
      ],
      "name": "createKYCMember",
      "outputs": [],
      "stateMutability": "nonpayable",
      "type": "function"
    },
    {
      "inputs": [
        {
          "internalType": "string",
          "name": "_projectId",
          "type": "string"
        },
        {
          "internalType": "bytes",
          "name": "_signature",
          "type": "bytes"
        }
      ],
      "name": "createProject",
      "outputs": [],
      "stateMutability": "payable",
      "type": "function"
    },
    {
      "inputs": [
        {
          "internalType": "string",
          "name": "_uid",
          "type": "string"
        },
        {
          "internalType": "address",
          "name": "_userAddress",
          "type": "address"
        }
      ],
      "name": "getCreateKYCMessageHash",
      "outputs": [
        {
          "internalType": "bytes32",
          "name": "",
          "type": "bytes32"
        }
      ],
      "stateMutability": "pure",
      "type": "function"
    },
    {
      "inputs": [
        {
          "internalType": "string",
          "name": "_uid",
          "type": "string"
        },
        {
          "internalType": "address",
          "name": "_userAddress",
          "type": "address"
        }
      ],
      "name": "getCreateProjectMessageHash",
      "outputs": [
        {
          "internalType": "bytes32",
          "name": "",
          "type": "bytes32"
        }
      ],
      "stateMutability": "pure",
      "type": "function"
    },
    {
      "inputs": [
        {
          "internalType": "uint256",
          "name": "_projectIndex",
          "type": "uint256"
        },
        {
          "internalType": "address",
          "name": "_userAddress",
          "type": "address"
        }
      ],
      "name": "getKYCByProject",
      "outputs": [
        {
          "components": [
            {
              "internalType": "string",
              "name": "uid",
              "type": "string"
            },
            {
              "internalType": "address",
              "name": "userAddress",
              "type": "address"
            },
            {
              "internalType": "uint8",
              "name": "version",
              "type": "uint8"
            },
            {
              "internalType": "uint256",
              "name": "createdAt",
              "type": "uint256"
            },
            {
              "internalType": "uint256",
              "name": "kycExpireTime",
              "type": "uint256"
            }
          ],
          "internalType": "struct KYCPlatform.KycInfo",
          "name": "",
          "type": "tuple"
        }
      ],
      "stateMutability": "view",
      "type": "function"
    },
    {
      "inputs": [
        {
          "internalType": "address",
          "name": "_userAdress",
          "type": "address"
        }
      ],
      "name": "getKYCInfo",
      "outputs": [
        {
          "components": [
            {
              "internalType": "string",
              "name": "uid",
              "type": "string"
            },
            {
              "internalType": "address",
              "name": "userAddress",
              "type": "address"
            },
            {
              "internalType": "uint8",
              "name": "version",
              "type": "uint8"
            },
            {
              "internalType": "uint256",
              "name": "createdAt",
              "type": "uint256"
            },
            {
              "internalType": "uint256",
              "name": "kycExpireTime",
              "type": "uint256"
            }
          ],
          "internalType": "struct KYCPlatform.KycInfo",
          "name": "",
          "type": "tuple"
        }
      ],
      "stateMutability": "view",
      "type": "function"
    },
    {
      "inputs": [],
      "name": "getSettingKYC",
      "outputs": [
        {
          "components": [
            {
              "internalType": "uint8",
              "name": "version",
              "type": "uint8"
            },
            {
              "internalType": "uint32",
              "name": "renewExpireTime",
              "type": "uint32"
            },
            {
              "internalType": "uint32",
              "name": "durationUpdateVersion",
              "type": "uint32"
            }
          ],
          "internalType": "struct KYCPlatform.SettingKYC",
          "name": "",
          "type": "tuple"
        }
      ],
      "stateMutability": "view",
      "type": "function"
    },
    {
      "inputs": [],
      "name": "getSettingProject",
      "outputs": [
        {
          "components": [
            {
              "internalType": "uint32",
              "name": "expireEachProject",
              "type": "uint32"
            },
            {
              "internalType": "uint256",
              "name": "serviceFee",
              "type": "uint256"
            },
            {
              "internalType": "uint32",
              "name": "durationPaymentFee",
              "type": "uint32"
            }
          ],
          "internalType": "struct KYCPlatform.SettingProject",
          "name": "",
          "type": "tuple"
        }
      ],
      "stateMutability": "view",
      "type": "function"
    },
    {
      "inputs": [
        {
          "internalType": "bytes32",
          "name": "_messageHash",
          "type": "bytes32"
        },
        {
          "internalType": "bytes",
          "name": "_singature",
          "type": "bytes"
        }
      ],
      "name": "getSingerAdderss",
      "outputs": [
        {
          "internalType": "address",
          "name": "singer",
          "type": "address"
        }
      ],
      "stateMutability": "pure",
      "type": "function"
    },
    {
      "inputs": [],
      "name": "owner",
      "outputs": [
        {
          "internalType": "address",
          "name": "",
          "type": "address"
        }
      ],
      "stateMutability": "view",
      "type": "function"
    },
    {
      "inputs": [],
      "name": "renounceOwnership",
      "outputs": [],
      "stateMutability": "nonpayable",
      "type": "function"
    },
    {
      "inputs": [
        {
          "internalType": "uint8",
          "name": "_version",
          "type": "uint8"
        },
        {
          "internalType": "uint32",
          "name": "_durationUpdateVersion",
          "type": "uint32"
        },
        {
          "internalType": "uint32",
          "name": "_renewExpireTime",
          "type": "uint32"
        }
      ],
      "name": "setSettingKYC",
      "outputs": [],
      "stateMutability": "nonpayable",
      "type": "function"
    },
    {
      "inputs": [
        {
          "internalType": "uint32",
          "name": "_expireEachProject",
          "type": "uint32"
        },
        {
          "internalType": "uint256",
          "name": "_serviceFee",
          "type": "uint256"
        },
        {
          "internalType": "uint32",
          "name": "_durationPaymentFee",
          "type": "uint32"
        }
      ],
      "name": "setSettingProject",
      "outputs": [],
      "stateMutability": "nonpayable",
      "type": "function"
    },
    {
      "inputs": [
        {
          "internalType": "uint256",
          "name": "_projectIndex",
          "type": "uint256"
        }
      ],
      "name": "shareKYCInfo",
      "outputs": [],
      "stateMutability": "payable",
      "type": "function"
    },
    {
      "inputs": [
        {
          "internalType": "address",
          "name": "newOwner",
          "type": "address"
        }
      ],
      "name": "transferOwnership",
      "outputs": [],
      "stateMutability": "nonpayable",
      "type": "function"
    },
    {
      "inputs": [
        {
          "internalType": "address",
          "name": "_singer",
          "type": "address"
        },
        {
          "internalType": "string",
          "name": "_uid",
          "type": "string"
        },
        {
          "internalType": "address",
          "name": "_userAddress",
          "type": "address"
        },
        {
          "internalType": "bytes",
          "name": "_signature",
          "type": "bytes"
        }
      ],
      "name": "verifyCreateKYC",
      "outputs": [
        {
          "internalType": "bool",
          "name": "",
          "type": "bool"
        }
      ],
      "stateMutability": "pure",
      "type": "function"
    },
    {
      "inputs": [
        {
          "internalType": "address",
          "name": "_singer",
          "type": "address"
        },
        {
          "internalType": "string",
          "name": "_projectId",
          "type": "string"
        },
        {
          "internalType": "address",
          "name": "_userAddress",
          "type": "address"
        },
        {
          "internalType": "bytes",
          "name": "_signature",
          "type": "bytes"
        }
      ],
      "name": "verifyCreateProject",
      "outputs": [
        {
          "internalType": "bool",
          "name": "",
          "type": "bool"
        }
      ],
      "stateMutability": "pure",
      "type": "function"
    }
  ],
  "bytecode": "0x60806040523480156200001157600080fd5b5062000032620000266200003f60201b60201c565b6200004760201b60201c565b600180819055506200010b565b600033905090565b60008060009054906101000a900473ffffffffffffffffffffffffffffffffffffffff169050816000806101000a81548173ffffffffffffffffffffffffffffffffffffffff021916908373ffffffffffffffffffffffffffffffffffffffff1602179055508173ffffffffffffffffffffffffffffffffffffffff168173ffffffffffffffffffffffffffffffffffffffff167f8be0079c531659141344cd1fd0a4f28419497f9722a3daafe3b4186f6b6457e060405160405180910390a35050565b613337806200011b6000396000f3fe6080604052600436106100fe5760003560e01c8063a81d1cec11610095578063dd51ef7811610064578063dd51ef7814610319578063e989b14014610356578063f2fde38b14610393578063f86fa485146103bc578063fa397d22146103f9576100fe565b8063a81d1cec1461025f578063b3d3c7cf1461028a578063c077e8ce146102c7578063c133bbf7146102f0576100fe565b8063856d63d6116100d1578063856d63d61461018f5780638da5cb5b146101ba57806395802804146101e5578063a5edb80714610222576100fe565b806334d6717e14610103578063372cf5a314610140578063715018a61461015c57806383d13d0f14610173575b600080fd5b34801561010f57600080fd5b5061012a60048036038101906101259190612263565b610422565b604051610137919061292f565b60405180910390f35b61015a60048036038101906101559190612323565b610455565b005b34801561016857600080fd5b506101716106b9565b005b61018d600480360381019061018891906122b7565b610741565b005b34801561019b57600080fd5b506101a46109fe565b6040516101b19190612bed565b60405180910390f35b3480156101c657600080fd5b506101cf610afd565b6040516101dc91906128f9565b60405180910390f35b3480156101f157600080fd5b5061020c60048036038101906102079190612153565b610b26565b6040516102199190612bcb565b60405180910390f35b34801561022e57600080fd5b506102496004803603810190610244919061217c565b610d1a565b6040516102569190612914565b60405180910390f35b34801561026b57600080fd5b50610274610d7a565b6040516102819190612c08565b60405180910390f35b34801561029657600080fd5b506102b160048036038101906102ac919061234c565b610e66565b6040516102be9190612bcb565b60405180910390f35b3480156102d357600080fd5b506102ee60048036038101906102e99190612388565b610fe4565b005b3480156102fc57600080fd5b50610317600480360381019061031291906123d7565b6110b7565b005b34801561032557600080fd5b50610340600480360381019061033b9190612263565b61119e565b60405161034d919061292f565b60405180910390f35b34801561036257600080fd5b5061037d6004803603810190610378919061220f565b6111d1565b60405161038a91906128f9565b60405180910390f35b34801561039f57600080fd5b506103ba60048036038101906103b59190612153565b6111e5565b005b3480156103c857600080fd5b506103e360048036038101906103de919061217c565b6112dd565b6040516103f09190612914565b60405180910390f35b34801561040557600080fd5b50610420600480360381019061041b91906122b7565b61133d565b005b600082826040516020016104379291906128ab565b60405160208183030381529060405280519060200120905092915050565b80600680549050811061049d576040517f08c379a000000000000000000000000000000000000000000000000000000000815260040161049490612b2b565b60405180910390fd5b600260015414156104e3576040517f08c379a00000000000000000000000000000000000000000000000000000000081526004016104da90612b8b565b60405180910390fd5b6002600181905550600960006104f7611796565b73ffffffffffffffffffffffffffffffffffffffff1673ffffffffffffffffffffffffffffffffffffffff16815260200190815260200160002060009054906101000a900460ff1661057e576040517f08c379a000000000000000000000000000000000000000000000000000000000815260040161057590612b4b565b60405180910390fd5b6105d6826008600061058e611796565b73ffffffffffffffffffffffffffffffffffffffff1673ffffffffffffffffffffffffffffffffffffffff16815260200190815260200160002061179e90919063ffffffff16565b15610616576040517f08c379a000000000000000000000000000000000000000000000000000000000815260040161060d90612aab565b60405180910390fd5b61066e8260086000610626611796565b73ffffffffffffffffffffffffffffffffffffffff1673ffffffffffffffffffffffffffffffffffffffff1681526020019081526020016000206117b890919063ffffffff16565b50817fc58e5c110eed19decf5f4b4c77cbb5e0b267bcffb47b47ef8f3308687fe9dd70610699611796565b6040516106a691906128f9565b60405180910390a2600180819055505050565b6106c1611796565b73ffffffffffffffffffffffffffffffffffffffff166106df610afd565b73ffffffffffffffffffffffffffffffffffffffff1614610735576040517f08c379a000000000000000000000000000000000000000000000000000000000815260040161072c90612b0b565b60405180910390fd5b61073f60006117d2565b565b60026001541415610787576040517f08c379a000000000000000000000000000000000000000000000000000000000815260040161077e90612b8b565b60405180910390fd5b6002600181905550600015156007836040516107a39190612894565b908152602001604051809103902060009054906101000a900460ff16151514610801576040517f08c379a00000000000000000000000000000000000000000000000000000000081526004016107f890612aeb565b60405180910390fd5b61081b61080c610afd565b83610815611796565b84610d1a565b61085a576040517f08c379a000000000000000000000000000000000000000000000000000000000815260040161085190612bab565b60405180910390fd5b6000610864611796565b90506000600360000160009054906101000a900463ffffffff1663ffffffff164261088f9190612ce2565b9050600660405180608001604052808681526020018381526020014281526020018473ffffffffffffffffffffffffffffffffffffffff168152509080600181540180825580915050600190039060005260206000209060040201600090919091909150600082015181600001908051906020019061090f929190611ed2565b50602082015181600101556040820151816002015560608201518160030160006101000a81548173ffffffffffffffffffffffffffffffffffffffff021916908373ffffffffffffffffffffffffffffffffffffffff1602179055505050600160078560405161097f9190612894565b908152602001604051809103902060006101000a81548160ff02191690831515021790555060016006805490506109b69190612d38565b7fa026ee65bff24e0219543a4cec2746ef952b145e2658ac5db36953d7044712a98584846040516109e99392919061298f565b60405180910390a25050600180819055505050565b610a06611f58565b610a0e611796565b73ffffffffffffffffffffffffffffffffffffffff16610a2c610afd565b73ffffffffffffffffffffffffffffffffffffffff1614610a82576040517f08c379a0000000000000000000000000000000000000000000000000000000008152600401610a7990612b0b565b60405180910390fd5b60026040518060600160405290816000820160009054906101000a900460ff1660ff1660ff1681526020016000820160019054906101000a900463ffffffff1663ffffffff1663ffffffff1681526020016000820160059054906101000a900463ffffffff1663ffffffff1663ffffffff1681525050905090565b60008060009054906101000a900473ffffffffffffffffffffffffffffffffffffffff16905090565b610b2e611f88565b610b36611796565b73ffffffffffffffffffffffffffffffffffffffff16610b54610afd565b73ffffffffffffffffffffffffffffffffffffffff1614610baa576040517f08c379a0000000000000000000000000000000000000000000000000000000008152600401610ba190612b0b565b60405180910390fd5b6000600a60008473ffffffffffffffffffffffffffffffffffffffff1673ffffffffffffffffffffffffffffffffffffffff1681526020019081526020016000206040518060a0016040529081600082018054610c0690612e53565b80601f0160208091040260200160405190810160405280929190818152602001828054610c3290612e53565b8015610c7f5780601f10610c5457610100808354040283529160200191610c7f565b820191906000526020600020905b815481529060010190602001808311610c6257829003601f168201915b505050505081526020016001820160009054906101000a900473ffffffffffffffffffffffffffffffffffffffff1673ffffffffffffffffffffffffffffffffffffffff1673ffffffffffffffffffffffffffffffffffffffff1681526020016001820160149054906101000a900460ff1660ff1660ff16815260200160028201548152602001600382015481525050905080915050919050565b600080610d27858561119e565b90506000610d3482611896565b90508673ffffffffffffffffffffffffffffffffffffffff16610d5782866111d1565b73ffffffffffffffffffffffffffffffffffffffff161492505050949350505050565b610d82611fd0565b610d8a611796565b73ffffffffffffffffffffffffffffffffffffffff16610da8610afd565b73ffffffffffffffffffffffffffffffffffffffff1614610dfe576040517f08c379a0000000000000000000000000000000000000000000000000000000008152600401610df590612b0b565b60405180910390fd5b60036040518060600160405290816000820160009054906101000a900463ffffffff1663ffffffff1663ffffffff168152602001600182015481526020016002820160009054906101000a900463ffffffff1663ffffffff1663ffffffff1681525050905090565b610e6e611f88565b826006805490508110610eb6576040517f08c379a0000000000000000000000000000000000000000000000000000000008152600401610ead90612b2b565b60405180910390fd5b600960008473ffffffffffffffffffffffffffffffffffffffff1673ffffffffffffffffffffffffffffffffffffffff16815260200190815260200160002060009054906101000a900460ff16610f42576040517f08c379a0000000000000000000000000000000000000000000000000000000008152600401610f3990612b4b565b60405180910390fd5b610f9384600860008673ffffffffffffffffffffffffffffffffffffffff1673ffffffffffffffffffffffffffffffffffffffff16815260200190815260200160002061179e90919063ffffffff16565b610fd2576040517f08c379a0000000000000000000000000000000000000000000000000000000008152600401610fc990612b6b565b60405180910390fd5b610fdb83610b26565b91505092915050565b610fec611796565b73ffffffffffffffffffffffffffffffffffffffff1661100a610afd565b73ffffffffffffffffffffffffffffffffffffffff1614611060576040517f08c379a000000000000000000000000000000000000000000000000000000000815260040161105790612b0b565b60405180910390fd5b82600360000160006101000a81548163ffffffff021916908363ffffffff1602179055508160036001018190555080600360020160006101000a81548163ffffffff021916908363ffffffff160217905550505050565b6110bf611796565b73ffffffffffffffffffffffffffffffffffffffff166110dd610afd565b73ffffffffffffffffffffffffffffffffffffffff1614611133576040517f08c379a000000000000000000000000000000000000000000000000000000000815260040161112a90612b0b565b60405180910390fd5b82600260000160006101000a81548160ff021916908360ff16021790555081600260000160056101000a81548163ffffffff021916908363ffffffff16021790555080600260000160016101000a81548163ffffffff021916908363ffffffff160217905550505050565b600082826040516020016111b39291906128ab565b60405160208183030381529060405280519060200120905092915050565b60006111dd83836118a8565b905092915050565b6111ed611796565b73ffffffffffffffffffffffffffffffffffffffff1661120b610afd565b73ffffffffffffffffffffffffffffffffffffffff1614611261576040517f08c379a000000000000000000000000000000000000000000000000000000000815260040161125890612b0b565b60405180910390fd5b600073ffffffffffffffffffffffffffffffffffffffff168173ffffffffffffffffffffffffffffffffffffffff1614156112d1576040517f08c379a00000000000000000000000000000000000000000000000000000000081526004016112c890612a6b565b60405180910390fd5b6112da816117d2565b50565b6000806112ea858561119e565b905060006112f782611896565b90508673ffffffffffffffffffffffffffffffffffffffff1661131a82866111d1565b73ffffffffffffffffffffffffffffffffffffffff161492505050949350505050565b60026001541415611383576040517f08c379a000000000000000000000000000000000000000000000000000000000815260040161137a90612b8b565b60405180910390fd5b6002600181905550600015156009600061139b611796565b73ffffffffffffffffffffffffffffffffffffffff1673ffffffffffffffffffffffffffffffffffffffff16815260200190815260200160002060009054906101000a900460ff16151514611425576040517f08c379a000000000000000000000000000000000000000000000000000000000815260040161141c90612a4b565b60405180910390fd5b61143f611430610afd565b83611439611796565b846112dd565b61147e576040517f08c379a000000000000000000000000000000000000000000000000000000000815260040161147590612bab565b60405180910390fd5b600260000160009054906101000a900460ff16600a600061149d611796565b73ffffffffffffffffffffffffffffffffffffffff1673ffffffffffffffffffffffffffffffffffffffff16815260200190815260200160002060010160146101000a81548160ff021916908360ff1602179055506114fa611796565b600a6000611506611796565b73ffffffffffffffffffffffffffffffffffffffff1673ffffffffffffffffffffffffffffffffffffffff16815260200190815260200160002060010160006101000a81548173ffffffffffffffffffffffffffffffffffffffff021916908373ffffffffffffffffffffffffffffffffffffffff16021790555081600a600061158e611796565b73ffffffffffffffffffffffffffffffffffffffff1673ffffffffffffffffffffffffffffffffffffffff16815260200190815260200160002060000190805190602001906115de929190611ed2565b5042600a60006115ec611796565b73ffffffffffffffffffffffffffffffffffffffff1673ffffffffffffffffffffffffffffffffffffffff16815260200190815260200160002060020181905550600260000160019054906101000a900463ffffffff1663ffffffff16426116549190612ce2565b600a6000611660611796565b73ffffffffffffffffffffffffffffffffffffffff1673ffffffffffffffffffffffffffffffffffffffff168152602001908152602001600020600301819055506001600960006116af611796565b73ffffffffffffffffffffffffffffffffffffffff1673ffffffffffffffffffffffffffffffffffffffff16815260200190815260200160002060006101000a81548160ff0219169083151502179055507fa038f8a857c01feb8216609a7e3c15ce623dd71fc1f46882e546b99a25e6e7bb8261172a611796565b600a6000611736611796565b73ffffffffffffffffffffffffffffffffffffffff1673ffffffffffffffffffffffffffffffffffffffff16815260200190815260200160002060030154604051611783939291906129cd565b60405180910390a1600180819055505050565b600033905090565b60006117b0836000018360001b6118cf565b905092915050565b60006117ca836000018360001b6118f2565b905092915050565b60008060009054906101000a900473ffffffffffffffffffffffffffffffffffffffff169050816000806101000a81548173ffffffffffffffffffffffffffffffffffffffff021916908373ffffffffffffffffffffffffffffffffffffffff1602179055508173ffffffffffffffffffffffffffffffffffffffff168173ffffffffffffffffffffffffffffffffffffffff167f8be0079c531659141344cd1fd0a4f28419497f9722a3daafe3b4186f6b6457e060405160405180910390a35050565b60006118a182611962565b9050919050565b60008060006118b78585611992565b915091506118c481611a15565b819250505092915050565b600080836001016000848152602001908152602001600020541415905092915050565b60006118fe83836118cf565b61195757826000018290806001815401808255809150506001900390600052602060002001600090919091909150558260000180549050836001016000848152602001908152602001600020819055506001905061195c565b600090505b92915050565b60008160405160200161197591906128d3565b604051602081830303815290604052805190602001209050919050565b6000806041835114156119d45760008060006020860151925060408601519150606086015160001a90506119c887828585611d66565b94509450505050611a0e565b604083511415611a055760008060208501519150604085015190506119fa868383611e73565b935093505050611a0e565b60006002915091505b9250929050565b60006004811115611a4f577f4e487b7100000000000000000000000000000000000000000000000000000000600052602160045260246000fd5b816004811115611a88577f4e487b7100000000000000000000000000000000000000000000000000000000600052602160045260246000fd5b1415611a9357611d63565b60016004811115611acd577f4e487b7100000000000000000000000000000000000000000000000000000000600052602160045260246000fd5b816004811115611b06577f4e487b7100000000000000000000000000000000000000000000000000000000600052602160045260246000fd5b1415611b47576040517f08c379a0000000000000000000000000000000000000000000000000000000008152600401611b3e90612a0b565b60405180910390fd5b60026004811115611b81577f4e487b7100000000000000000000000000000000000000000000000000000000600052602160045260246000fd5b816004811115611bba577f4e487b7100000000000000000000000000000000000000000000000000000000600052602160045260246000fd5b1415611bfb576040517f08c379a0000000000000000000000000000000000000000000000000000000008152600401611bf290612a2b565b60405180910390fd5b60036004811115611c35577f4e487b7100000000000000000000000000000000000000000000000000000000600052602160045260246000fd5b816004811115611c6e577f4e487b7100000000000000000000000000000000000000000000000000000000600052602160045260246000fd5b1415611caf576040517f08c379a0000000000000000000000000000000000000000000000000000000008152600401611ca690612a8b565b60405180910390fd5b600480811115611ce8577f4e487b7100000000000000000000000000000000000000000000000000000000600052602160045260246000fd5b816004811115611d21577f4e487b7100000000000000000000000000000000000000000000000000000000600052602160045260246000fd5b1415611d62576040517f08c379a0000000000000000000000000000000000000000000000000000000008152600401611d5990612acb565b60405180910390fd5b5b50565b6000807f7fffffffffffffffffffffffffffffff5d576e7357a4501ddfe92f46681b20a08360001c1115611da1576000600391509150611e6a565b601b8560ff1614158015611db95750601c8560ff1614155b15611dcb576000600491509150611e6a565b600060018787878760405160008152602001604052604051611df0949392919061294a565b6020604051602081039080840390855afa158015611e12573d6000803e3d6000fd5b505050602060405103519050600073ffffffffffffffffffffffffffffffffffffffff168173ffffffffffffffffffffffffffffffffffffffff161415611e6157600060019250925050611e6a565b80600092509250505b94509492505050565b60008060007f7fffffffffffffffffffffffffffffffffffffffffffffffffffffffffffffff60001b841690506000601b60ff8660001c901c611eb69190612ce2565b9050611ec487828885611d66565b935093505050935093915050565b828054611ede90612e53565b90600052602060002090601f016020900481019282611f005760008555611f47565b82601f10611f1957805160ff1916838001178555611f47565b82800160010185558215611f47579182015b82811115611f46578251825591602001919060010190611f2b565b5b509050611f549190611ffd565b5090565b6040518060600160405280600060ff168152602001600063ffffffff168152602001600063ffffffff1681525090565b6040518060a0016040528060608152602001600073ffffffffffffffffffffffffffffffffffffffff168152602001600060ff16815260200160008152602001600081525090565b6040518060600160405280600063ffffffff16815260200160008152602001600063ffffffff1681525090565b5b80821115612016576000816000905550600101611ffe565b5090565b600061202d61202884612c48565b612c23565b90508281526020810184848401111561204557600080fd5b612050848285612e11565b509392505050565b600061206b61206684612c79565b612c23565b90508281526020810184848401111561208357600080fd5b61208e848285612e11565b509392505050565b6000813590506120a58161328e565b92915050565b6000813590506120ba816132a5565b92915050565b600082601f8301126120d157600080fd5b81356120e184826020860161201a565b91505092915050565b600082601f8301126120fb57600080fd5b813561210b848260208601612058565b91505092915050565b600081359050612123816132bc565b92915050565b600081359050612138816132d3565b92915050565b60008135905061214d816132ea565b92915050565b60006020828403121561216557600080fd5b600061217384828501612096565b91505092915050565b6000806000806080858703121561219257600080fd5b60006121a087828801612096565b945050602085013567ffffffffffffffff8111156121bd57600080fd5b6121c9878288016120ea565b93505060406121da87828801612096565b925050606085013567ffffffffffffffff8111156121f757600080fd5b612203878288016120c0565b91505092959194509250565b6000806040838503121561222257600080fd5b6000612230858286016120ab565b925050602083013567ffffffffffffffff81111561224d57600080fd5b612259858286016120c0565b9150509250929050565b6000806040838503121561227657600080fd5b600083013567ffffffffffffffff81111561229057600080fd5b61229c858286016120ea565b92505060206122ad85828601612096565b9150509250929050565b600080604083850312156122ca57600080fd5b600083013567ffffffffffffffff8111156122e457600080fd5b6122f0858286016120ea565b925050602083013567ffffffffffffffff81111561230d57600080fd5b612319858286016120c0565b9150509250929050565b60006020828403121561233557600080fd5b600061234384828501612114565b91505092915050565b6000806040838503121561235f57600080fd5b600061236d85828601612114565b925050602061237e85828601612096565b9150509250929050565b60008060006060848603121561239d57600080fd5b60006123ab86828701612129565b93505060206123bc86828701612114565b92505060406123cd86828701612129565b9150509250925092565b6000806000606084860312156123ec57600080fd5b60006123fa8682870161213e565b935050602061240b86828701612129565b925050604061241c86828701612129565b9150509250925092565b61242f81612ddb565b82525050565b61243e81612d6c565b82525050565b61244d81612d6c565b82525050565b61246461245f82612d6c565b612eb6565b82525050565b61247381612d7e565b82525050565b61248281612d8a565b82525050565b61249961249482612d8a565b612ec8565b82525050565b60006124aa82612caa565b6124b48185612cb5565b93506124c4818560208601612e20565b6124cd81612f71565b840191505092915050565b60006124e382612caa565b6124ed8185612cc6565b93506124fd818560208601612e20565b61250681612f71565b840191505092915050565b600061251c82612caa565b6125268185612cd7565b9350612536818560208601612e20565b80840191505092915050565b600061254f601883612cc6565b915061255a82612f8f565b602082019050919050565b6000612572601f83612cc6565b915061257d82612fb8565b602082019050919050565b6000612595601c83612cd7565b91506125a082612fe1565b601c82019050919050565b60006125b8601983612cc6565b91506125c38261300a565b602082019050919050565b60006125db602683612cc6565b91506125e682613033565b604082019050919050565b60006125fe602283612cc6565b915061260982613082565b604082019050919050565b6000612621601f83612cc6565b915061262c826130d1565b602082019050919050565b6000612644602283612cc6565b915061264f826130fa565b604082019050919050565b6000612667601d83612cc6565b915061267282613149565b602082019050919050565b600061268a602083612cc6565b915061269582613172565b602082019050919050565b60006126ad602183612cc6565b91506126b88261319b565b604082019050919050565b60006126d0601c83612cc6565b91506126db826131ea565b602082019050919050565b60006126f3601e83612cc6565b91506126fe82613213565b602082019050919050565b6000612716601f83612cc6565b91506127218261323c565b602082019050919050565b6000612739601e83612cc6565b915061274482613265565b602082019050919050565b600060a083016000830151848203600086015261276c828261249f565b91505060208301516127816020860182612435565b5060408301516127946040860182612876565b5060608301516127a76060860182612849565b5060808301516127ba6080860182612849565b508091505092915050565b6060820160008201516127db6000850182612876565b5060208201516127ee6020850182612867565b5060408201516128016040850182612867565b50505050565b60608201600082015161281d6000850182612867565b5060208201516128306020850182612849565b5060408201516128436040850182612867565b50505050565b61285281612db4565b82525050565b61286181612db4565b82525050565b61287081612dbe565b82525050565b61287f81612dce565b82525050565b61288e81612dce565b82525050565b60006128a08284612511565b915081905092915050565b60006128b78285612511565b91506128c38284612453565b6014820191508190509392505050565b60006128de82612588565b91506128ea8284612488565b60208201915081905092915050565b600060208201905061290e6000830184612444565b92915050565b6000602082019050612929600083018461246a565b92915050565b60006020820190506129446000830184612479565b92915050565b600060808201905061295f6000830187612479565b61296c6020830186612885565b6129796040830185612479565b6129866060830184612479565b95945050505050565b600060608201905081810360008301526129a981866124d8565b90506129b86020830185612426565b6129c56040830184612858565b949350505050565b600060608201905081810360008301526129e781866124d8565b90506129f66020830185612444565b612a036040830184612858565b949350505050565b60006020820190508181036000830152612a2481612542565b9050919050565b60006020820190508181036000830152612a4481612565565b9050919050565b60006020820190508181036000830152612a64816125ab565b9050919050565b60006020820190508181036000830152612a84816125ce565b9050919050565b60006020820190508181036000830152612aa4816125f1565b9050919050565b60006020820190508181036000830152612ac481612614565b9050919050565b60006020820190508181036000830152612ae481612637565b9050919050565b60006020820190508181036000830152612b048161265a565b9050919050565b60006020820190508181036000830152612b248161267d565b9050919050565b60006020820190508181036000830152612b44816126a0565b9050919050565b60006020820190508181036000830152612b64816126c3565b9050919050565b60006020820190508181036000830152612b84816126e6565b9050919050565b60006020820190508181036000830152612ba481612709565b9050919050565b60006020820190508181036000830152612bc48161272c565b9050919050565b60006020820190508181036000830152612be5818461274f565b905092915050565b6000606082019050612c0260008301846127c5565b92915050565b6000606082019050612c1d6000830184612807565b92915050565b6000612c2d612c3e565b9050612c398282612e85565b919050565b6000604051905090565b600067ffffffffffffffff821115612c6357612c62612f42565b5b612c6c82612f71565b9050602081019050919050565b600067ffffffffffffffff821115612c9457612c93612f42565b5b612c9d82612f71565b9050602081019050919050565b600081519050919050565b600082825260208201905092915050565b600082825260208201905092915050565b600081905092915050565b6000612ced82612db4565b9150612cf883612db4565b9250827fffffffffffffffffffffffffffffffffffffffffffffffffffffffffffffffff03821115612d2d57612d2c612ee4565b5b828201905092915050565b6000612d4382612db4565b9150612d4e83612db4565b925082821015612d6157612d60612ee4565b5b828203905092915050565b6000612d7782612d94565b9050919050565b60008115159050919050565b6000819050919050565b600073ffffffffffffffffffffffffffffffffffffffff82169050919050565b6000819050919050565b600063ffffffff82169050919050565b600060ff82169050919050565b6000612de682612ded565b9050919050565b6000612df882612dff565b9050919050565b6000612e0a82612d94565b9050919050565b82818337600083830152505050565b60005b83811015612e3e578082015181840152602081019050612e23565b83811115612e4d576000848401525b50505050565b60006002820490506001821680612e6b57607f821691505b60208210811415612e7f57612e7e612f13565b5b50919050565b612e8e82612f71565b810181811067ffffffffffffffff82111715612ead57612eac612f42565b5b80604052505050565b6000612ec182612ed2565b9050919050565b6000819050919050565b6000612edd82612f82565b9050919050565b7f4e487b7100000000000000000000000000000000000000000000000000000000600052601160045260246000fd5b7f4e487b7100000000000000000000000000000000000000000000000000000000600052602260045260246000fd5b7f4e487b7100000000000000000000000000000000000000000000000000000000600052604160045260246000fd5b6000601f19601f8301169050919050565b60008160601b9050919050565b7f45434453413a20696e76616c6964207369676e61747572650000000000000000600082015250565b7f45434453413a20696e76616c6964207369676e6174757265206c656e67746800600082015250565b7f19457468657265756d205369676e6564204d6573736167653a0a333200000000600082015250565b7f4b5943506c6174666f726d3a204b594320697320657869737400000000000000600082015250565b7f4f776e61626c653a206e6577206f776e657220697320746865207a65726f206160008201527f6464726573730000000000000000000000000000000000000000000000000000602082015250565b7f45434453413a20696e76616c6964207369676e6174757265202773272076616c60008201527f7565000000000000000000000000000000000000000000000000000000000000602082015250565b7f4b5943506c6174666f726d3a204b5943496e666f207761732073686172656400600082015250565b7f45434453413a20696e76616c6964207369676e6174757265202776272076616c60008201527f7565000000000000000000000000000000000000000000000000000000000000602082015250565b7f4b5943506c6174666f726d3a2050726f6a656374206973206578697374000000600082015250565b7f4f776e61626c653a2063616c6c6572206973206e6f7420746865206f776e6572600082015250565b7f4b5943506c6174666f726d3a2050726f6a656374206973206e6f74206578697360008201527f7400000000000000000000000000000000000000000000000000000000000000602082015250565b7f4b5943506c6174666f726d3a204b59432069736e277420657869737400000000600082015250565b7f4b5943506c6174666f726d3a204b5943207761736e2774207368617265640000600082015250565b7f5265656e7472616e637947756172643a207265656e7472616e742063616c6c00600082015250565b7f4b5943506c6174666f726d3a20496e76616c6964205369676e61747572650000600082015250565b61329781612d6c565b81146132a257600080fd5b50565b6132ae81612d8a565b81146132b957600080fd5b50565b6132c581612db4565b81146132d057600080fd5b50565b6132dc81612dbe565b81146132e757600080fd5b50565b6132f381612dce565b81146132fe57600080fd5b5056fea264697066735822122087d81a44fd8e87453e6db7f9a237bd9dd6f7f755fe45c1176813c78164ead72364736f6c63430008040033",
  "linkReferences": {},
  "deployedLinkReferences": {}
}